:020000041008E2
:100000000000082841620810D169081055670810DF
:10001000D5690810D9690810DD69081000000000D2
:10002000000000000000000000000000116808103F
:10003000E169081000000000E5690810E96908108E
:10004000075A08102D5A0810535A0810795A0810E8
:100050009F5A0810C55A0810EB5A0810115B081077
:10006000ED690810F1690810F5690810F9690810C0
:10007000FD690810016A0810056A0810096A08106D
:10008000022801D3012010E00B00DBB2042B01DBBE
:1000900001200AE0DFF8283803EB8000C9B2405C99
:1000A000824201D3012000E000207047F8B506002D
:1000B0000F0015001C00022E01D301201DE02A00B4
:1000C0003900C9B23000FFF7DBFF012801D1012060
:1000D00013E03800C0B2002812D1B4F5807F0DD2F1
:1000E000DFF8E0077603304400EB850010F5805020
:1000F000016864F30F2101600020F2BD0120FCE7DC
:10010000FFB2012F11D1B4F5803F0CD2DFF8B40754
:100110007603304400EB850010F5A050016864F3CD
:1001200017210160E8E70120E7E70120E5E700B2D9
:100130000012C0B27047F8B505000E001700280085
:1001400000B2FFF7F4FF04002000C0B2022801D380
:10015000012024E03A003100C9B22000C0B2FFF70C
:100160008FFF012801D1012019E0DFF85817200086
:10017000C0B2400308442A00D2B200EB8200D0F89B
:10018000000CF6B266F3092067F30700E4B26403DB
:100190002144EDB201EB8501C1F8000C0020F2BD55
:1001A00070B504000D001600022C01D301201DE0E3
:1001B00032002900C9B22000FFF762FF012801D1F7
:1001C000012013E0DFF8FC166003085850F00040EF
:1001D00050F0407050F47F00EDB265F3092066F3F3
:1001E00007006203885064030859002070BD10B5F1
:1001F000C0B2002800F0EA80022800F0EB80C0F0D6
:10020000E780042800F0EA80C0F0E680062800F0CD
:10021000E980C0F0E580082800F0E880C0F0E480C4
:100220000A2800F0E780C0F0E3800C2800F0E680A8
:10023000C0F0E2800E2800F0E580C0F0E1801028D8
:1002400000F0E480C0F0E080122800F0E380C0F00D
:10025000DF80142800F0E280C0F0DE80162800F075
:10026000E180C0F0DD80182800F0E080C0F0DC8084
:100270001A2800F0DF80C0F0DB801C2800F0DE8050
:10028000C0F0DA801E2800F0DD80C0F0D980202880
:1002900000F0DC80C0F0D880222800F0DB80C0F0C5
:1002A000D780242800F0DA80C0F0D680262800F01D
:1002B000D980C0F0D580282800F0D880C0F0D48044
:1002C0002A2800F0D780C0F0D3802C2800F0D680F8
:1002D000C0F0D2802E2800F0D580C0F0D180302828
:1002E00000F0D480C0F0D080322800F0D380C0F07D
:1002F000CF80342800F0D280C0F0CE80362800F0C5
:10030000D180C0F0CD80382800F0D080C0F0CC8003
:100310003A2800F0CF80C0F0CB803C2800F0CE809F
:10032000C0F0CA803E2800F0CD80C0F0C9804028CF
:1003300000F0CC80C0F0C880422800F0CB80C0F034
:10034000C780442800F0CA80C0F0C680462800F06C
:10035000C980C0F0C580482800F0C880C0F0C480C3
:100360004A2800F0C780C0F0C3804C2800F0C68047
:10037000C0F0C2804E2800F0C580C0F0C180502877
:1003800000F0C480C0F0C080522800F0C380C0F0EC
:10039000BF80542800F0C280C0F0BE80562800F014
:1003A000C180C0F0BD80582800F0C080C0F0BC8083
:1003B0005A2800F0BF80C0F0BB805C2800F0BE80EF
:1003C000C0F0BA805D2800F0BB80BBE01924BFE01C
:1003D0003124BDE01824BBE03324B9E03524B7E074
:1003E0001424B5E03724B3E01324B1E02024AFE0B7
:1003F0001224ADE02124ABE01124A9E01024A7E0F1
:100400002824A5E02924A3E02A24A1E009249FE0D0
:100410002B249DE008249BE02C2499E0032497E002
:10042000022495E0392493E03B2491E03D248FE0C1
:1004300001248DE03F248BE0002489E0402487E004
:10044000412485E0422483E0432481E0BF247FE00F
:1004500048247DE049247BE0BC2479E0992477E0BE
:100460009A2475E0502473E09B2471E0B6246FE079
:1004700051246DE09C246BE0B52469E0522467E0D0
:10048000A02465E0B42463E0532461E0B3245FE07A
:1004900054245DE0B2245BE0B12459E0AD2457E080
:1004A000602455E0AE2453E0612451E0AD244FE0D8
:1004B00062244DE063244BE0AB2449E0642447E030
:1004C000AA2445E0652443E0A92441E0A8243FE0B4
:1004D00069243DE06B243BE06D2439E06F2437E074
:1004E000A32435E0702433E0A22431E071242FE00E
:1004F000A1242DE097242BE0962429E0742427E002
:10050000952425E0752423E0942421E093241FE022
:1005100092241DE078241BE0792419E08C2417E054
:100520007A2415E08B2413E07B2411E08A240FE069
:100530005A240DE059240BE0892409E0582407E0EF
:10054000882405E09D22DFF84019002000F04DFED0
:100550002000C0B210BD10B5C0B2002800F0EA8083
:10056000022800F0EB80C0F0E780042800F0EA8069
:10057000C0F0E680062800F0E980C0F0E580082899
:1005800000F0E880C0F0E4800A2800F0E780C0F0C6
:10059000E3800C2800F0E680C0F0E2800E2800F036
:1005A000E580C0F0E180102800F0E480C0F0E08039
:1005B000122800F0E380C0F0DF80142800F0E28011
:1005C000C0F0DE80162800F0E180C0F0DD80182841
:1005D00000F0E080C0F0DC801A2800F0DF80C0F07E
:1005E000DB801C2800F0DE80C0F0DA801E2800F0DE
:1005F000DD80C0F0D980202800F0DC80C0F0D880F9
:10060000222800F0DB80C0F0D780242800F0DA80B8
:10061000C0F0D680262800F0D980C0F0D5802828E8
:1006200000F0D880C0F0D4802A2800F0D780C0F035
:10063000D3802C2800F0D680C0F0D2802E2800F085
:10064000D580C0F0D180302800F0D480C0F0D080B8
:10065000322800F0D380C0F0CF80342800F0D28060
:10066000C0F0CE80362800F0D180C0F0CD80382890
:1006700000F0D080C0F0CC803A2800F0CF80C0F0ED
:10068000CB803C2800F0CE80C0F0CA803E2800F02D
:10069000CD80C0F0C980402800F0CC80C0F0C88078
:1006A000422800F0CB80C0F0C780442800F0CA8008
:1006B000C0F0C680462800F0C980C0F0C580482838
:1006C00000F0C880C0F0C4804A2800F0C780C0F0A5
:1006D000C3804C2800F0C680C0F0C2804E2800F0D5
:1006E000C580C0F0C180502800F0C480C0F0C08038
:1006F000522800F0C380C0F0BF80542800F0C280B0
:10070000C0F0BE80562800F0C180C0F0BD805828DF
:1007100000F0C080C0F0BC805A2800F0BF80C0F05C
:10072000BB805C2800F0BE80C0F0BA805D2800F07D
:10073000BB80BBE00824C0E00824BEE00824BCE085
:100740000824BAE00824B8E00824B6E00824B4E09D
:100750000824B2E00824B0E00824AEE00824ACE0AD
:100760000824AAE00824A8E00824A6E00824A4E0BD
:100770000824A2E00824A0E008249EE008249CE0CD
:1007800008249AE0082498E0082496E0082494E0DD
:10079000082492E0082490E008248EE008248CE0ED
:1007A00008248AE0082488E0082486E0082484E0FD
:1007B000082482E0082480E008247EE008247CE00D
:1007C00008247AE0082478E0082476E0082474E01D
:1007D000082472E0082470E008246EE008246CE02D
:1007E00008246AE0082468E0082466E0082464E03D
:1007F000082462E0082460E008245EE008245CE04D
:1008000008245AE0162458E0082456E0082454E04E
:10081000082452E0082450E008244EE008244CE06C
:1008200008244AE0082448E0082446E0082444E07C
:10083000082442E0082440E008243EE008243CE08C
:1008400008243AE0082438E0082436E0082434E09C
:10085000082432E0082430E008242EE008242CE0AC
:1008600008242AE0082428E0082426E0082424E0BC
:10087000082422E0082420E008241EE008241CE0CC
:1008800008241AE0082418E0082416E0082414E0DC
:10089000082412E0082410E008240EE008240CE0EC
:1008A00008240AE0082408E0082406E04FF48672D1
:1008B000DFF8D415002000F098FC2000C0B210BD75
:1008C0001C6908100000044080B5C0B2002800F088
:1008D000EA80022800F0EB80C0F0E780042800F0F6
:1008E000EA80C0F0E680062800F0E980C0F0E580EC
:1008F000082800F0E880C0F0E4800A2800F0E780D3
:10090000C0F0E3800C2800F0E680C0F0E2800E2802
:1009100000F0E580C0F0E180102800F0E480C0F035
:10092000E080122800F0E380C0F0DF80142800F09F
:10093000E280C0F0DE80162800F0E180C0F0DD80AB
:10094000182800F0E080C0F0DC801A2800F0DF807A
:10095000C0F0DB801C2800F0DE80C0F0DA801E28AA
:1009600000F0DD80C0F0D980202800F0DC80C0F0ED
:10097000D880222800F0DB80C0F0D780242800F047
:10098000DA80C0F0D680262800F0D980C0F0D5806B
:10099000282800F0D880C0F0D4802A2800F0D78022
:1009A000C0F0D3802C2800F0D680C0F0D2802E2852
:1009B00000F0D580C0F0D180302800F0D480C0F0A5
:1009C000D080322800F0D380C0F0CF80342800F0EF
:1009D000D280C0F0CE80362800F0D180C0F0CD802B
:1009E000382800F0D080C0F0CC803A2800F0CF80CA
:1009F000C0F0CB803C2800F0CE80C0F0CA803E28FA
:100A000000F0CD80C0F0C980402800F0CC80C0F05C
:100A1000C880422800F0CB80C0F0C780442800F096
:100A2000CA80C0F0C680462800F0C980C0F0C580EA
:100A3000482800F0C880C0F0C4804A2800F0C78071
:100A4000C0F0C3804C2800F0C680C0F0C2804E28A1
:100A500000F0C580C0F0C180502800F0C480C0F014
:100A6000C080522800F0C380C0F0BF80542800F03E
:100A7000C280C0F0BE80562800F0C180C0F0BD80AA
:100A8000582800F0C080C0F0BC805A2800F0BF8019
:100A9000C0F0BB805C2800F0BE80C0F0BA805D284A
:100AA00000F0BB80BBE00020C0E00020BEE00120E1
:100AB000BCE00120BAE00220B8E00320B6E0032049
:100AC000B4E00420B2E00420B0E00520AEE0052050
:100AD000ACE00620AAE00720A8E00920A6E00A2052
:100AE000A4E00B20A2E00B20A0E00C209EE00C2054
:100AF0009CE00D209AE00D2098E00E2096E00F205B
:100B000094E0102092E0112090E011208EE012205D
:100B10008CE012208AE0132088E0142086E0152063
:100B200084E0162082E0162080E018207EE0192064
:100B30007CE019207AE01A2078E01B2076E01C2067
:100B400074E01C2072E01C2070E01D206EE01D206F
:100B50006CE01D206AE01E2068E01E2066E01E207A
:100B600064E01F2062E01F2060E020205EE0202083
:100B70005CE021205AE0222058E0242056E0242086
:100B800054E0252052E0252050E026204EE027208A
:100B90004CE027204AE0282048E0282046E0292091
:100BA00044E0292042E02A2040E02C203EE02D2095
:100BB0003CE02E203AE02F2038E02F2036E0302095
:100BC00034E0302032E0312030E031202EE032209D
:100BD0002CE033202AE0342028E0342026E03520A1
:100BE00024E0352022E0362020E037201EE03820A7
:100BF0001CE039201AE0392018E03A2016E03A20AB
:100C000014E03B2012E03B2010E03B200EE03C20B3
:100C10000CE03C200AE03D2008E03D2006E040F2E8
:100C20007B129949002000F0E0FA0020C0B202BD1A
:100C3000002007E09549C2018A5822F00042C30112
:100C4000CA50401C3F28F5DB704770B504000E0009
:100C5000002000202000C0B2FFF736FE8B4DC0B24E
:100C6000C0012844006A80B206FB00F642F2107010
:100C7000B6FBF0F62000C0B2FFF726FEC001284404
:100C8000B6B246612000C0B2FFF71EFE0100C9B235
:100C9000C9012944096C51F00101C0B2C0012844C6
:100CA000016470BD2DE9F041AAB004000D001600EA
:100CB000342100221DAF380000F018FB0020742101
:100CC00000226F46380000F011FB0E201E9020001D
:100CD000C0B2FFF740FC8DF87C002000C0B2FFF7E7
:100CE00086FA07005FF008082000C0B2FFF77FFA1D
:100CF0001DAA97FBF8F108FB11773900644BC0B2CD
:100D0000C010C001184400F0EEFB2000C0B2FFF795
:100D1000DBFD00220121C0B210F5937000B2FFF795
:100D20000AFA2000C0B2FFF7CFFDC0B210F59370F1
:100D300000B2FFF7FCF9092300220121C0B2FFF73E
:100D4000B5F92000C0B2FFF7BFFDC0B210F5937037
:100D500000B2FFF7ECF900220121C0B2FFF720FA40
:100D60004C48B0FBF5F1090C4A482A04B0FBF2F3F9
:100D700002FB1300002800D0491C022903D20020E6
:100D80008DF801002FE0032903D201208DF8010026
:100D900029E0052903D202208DF8010023E009296A
:100DA00003D203208DF801001DE0112903D2042095
:100DB0008DF8010017E0212903D205208DF80100EC
:100DC00011E0412903D206208DF801000BE08129B2
:100DD00003D207208DF8010005E040F2C9122A492C
:100DE000002000F002FA04208DF8000001208DF8A8
:100DF000100000208DF8110003208DF81200032050
:100E00008DF8130000208DF80800224901229DF979
:100E100001008240B1FBF2F0B0FBF5F0401E0590FE
:100E20000598401C06FB00F642F21070B6FBF0F08D
:100E3000089002208DF8400003208DF86800012002
:100E40001B9001208DF828002000C0B2FFF73CFD68
:100E50000E4D6946C0B2C001284400F083FB20005B
:100E6000C0B2FFF731FDC0B2C001284400F07AFCE7
:100E70002000C0B2FFF728FDC0B2C001284400F036
:100E800076FC2AB0BDE8F081786608100000584072
:100E90000000314000127A0082B000200190002052
:100EA00000900020019009E00098401C00900098FC
:100EB000B0F5005FF8D30198401C01900198B0F59F
:100EC000805F02D200200090F1E702B0704780B549
:100ED0000100002000F050FE01BD2DE9F043ADF50A
:100EE000137D0700884616001C000020ADF80200A4
:100EF0000020ADF80000002002900020ADF80400B2
:100F00000020ADF80600404601F056F80290DFF8E8
:100F1000A4532888002801D028698047DFF8980367
:100F20000078002800F033812888002800F0118123
:100F3000BDF90600411CADF806103A00010089B267
:100F40000020EB6898474746404601F035F802908C
:100F50006888A97990FBF1F0ADF804003800471CCF
:100F600000780028FAD10020ADF800000EE07F1EC6
:100F700038782F2802D038785C2804D1BDF80000DA
:100F8000401CADF800000298401E0290BDF8000021
:100F9000022802DA02980028E9D50298002806D42F
:100FA0007A1CDFF8181353A801F022F80EE0BDF800
:100FB0000000002805D13A00C14953A801F018F8F3
:100FC00004E03A00BD4953A801F012F80020ADF842
:100FD000020042E0BDF80010BDF80020BDF802306C
:100FE00053AF9BB2BDF90400434313FA82F0385C5F
:100FF00043AA89B25054BDF80000401CADF800006F
:10100000BDF8000080B2BDF9041088420EDA53A882
:1010100000F0D2FFBDF80020BDF802309BB2BDF950
:1010200004104B4313FA82F18842D3D2002043A923
:10103000BDF800208854BDF90600411CADF806102B
:1010400043AAE97911FB00F189B20020EB689847C7
:10105000BDF80200401CADF80200BDF8027053A8B4
:1010600000F0AAFFBDF90410B0FBF1F0401CBFB2C4
:10107000874203D20020ADF80000C1E73200914959
:1010800053A800F0B5FFBDF90600411CADF80610ED
:1010900053AAE97911FB00F189B20020EB68984767
:1010A000002C74D00020ADF8020041E0BDF8001023
:1010B000BDF80020BDF802309BB2BDF904004343E7
:1010C00013FA82F0205C43AA89B25054BDF80000A4
:1010D000401CADF80000BDF8000080B2BDF904105E
:1010E00088420EDA200000F067FFBDF80020BDF84E
:1010F00002309BB2BDF904104B4313FA82F18842CF
:10110000D4D2002043A9BDF800208854BDF90600C0
:10111000411CADF8061043AAE97911FB00F189B230
:101120000020EB689847BDF80200401CADF80200B3
:10113000BDF80260200000F03FFFBDF90410B0FBD5
:10114000F1F0401CB6B2864221D20020ADF800007A
:10115000C1E74FF4807100220DF10C09484600F000
:10116000C5F83800A9688847002C07D000943300E0
:101170004246554903A800F03BFF05E033004246D4
:10118000524903A800F034FF03A8A96888470DF569
:10119000137DBDE8F08380B50A000100002000F057
:1011A000DCFC002002BD02B5010000236A4648486D
:1011B00001F073F8009802BD10B53F480078002890
:1011C00009D0444C2100002000F0E4FC0122210061
:1011D0003F4800F092FF10BD10B514002200D2B2BB
:1011E000002000F0BAFC200010BD38B50C0015003E
:1011F000C0B2002803D138480078002800D131BDA2
:1012000036490878002800D0FEE70878401C0870AE
:1012100001F060FA00232A0021003148FFF75DFE4B
:10122000FFF73AFEF6E7002101804FF6FF7141809B
:101230008180FF218171C171002181600021C16025
:101240000021016170471B4902880A8042884A8058
:1012500082888A8082798A71C279CA7182688A603A
:10126000C268CA60006908610120134908707047AC
:1012700000B585B06846FFF7D6FF1A480290684669
:10128000FFF7E1FF05B000BD80B5FFF7F1FF0023D8
:1012900000225FF4E131002000F0A2FD4023124A59
:1012A00000210B4801F0ACF90121002000F019FDEC
:1012B00001BD0000140D02285B0D0228EC68081027
:1012C000BC680810F8680810F467081078680810FF
:1012D000840C02285C0D02285A0702285D0D0228A2
:1012E000CC680810CF0E0810380B022862F30F22CA
:1012F00062F31F42401810F0030308D0C91A1FD32D
:10130000DB0748BF00F8012D28BF20F8022D13008D
:1013100030B414461546103928BF20E93C00FAD8ED
:10132000490728BF20E90C0048BF40F8042D890078
:1013300028BF20F8022D48BF00F8012D30BC7047AF
:10134000C91818BF00F8012DCB0728BF00F8012DE0
:101350007047F0B40246106895681318506803EBA4
:101360005004C00748BF4D44A3422DD013F8016B71
:1013700016F0030004BF13F8010BC01C31090F293C
:1013800007D113F8011B0F3103E013F8017B05F8B7
:10139000017B401EF9D10029E6D013F8010BC6F3FA
:1013A0008106032E08BF13F8016B00EB06204042B4
:1013B00028440026B71E8F421EBF10F8017B05F897
:1013C000017B761CF6D1CFE7F0BC02F10C00704730
:1013D00030B4614B1818C009604C14EB0014042998
:1013E0000DD223681F25C8008540AB43D2B212F04E
:1013F0001F02C90012FA01F1194321600CE0091F14
:1014000063681F25C8008540AB43D2B212F01F02AB
:10141000C9008A401A43626030BC7047002A04D178
:10142000012212FA01F1416003E0012212FA01F1F6
:101430008160704710B48900436C0F248C40A34333
:1014400012F00F0212FA01F11943416410BC704707
:1014500010B4836C01248C40A34312F0010212FAF1
:1014600001F11943816410BC704710B4C36C0124AE
:101470008C40A34312F0010212FA01F11943C16436
:1014800010BC704710B449001031C36C03248C4069
:10149000A34312F0030212FA01F11943C16410BC14
:1014A00070474269012212FA01F1416140697047B7
:1014B00010B4836901248C40A34312F0010212FA94
:1014C00001F11943816110BC704710B44900036CED
:1014D00003248C40A34312F0030212FA01F11943D2
:1014E000016410BC7047F8B505000E001400002719
:1014F000002D2ED0002C2CD0226831002800FFF7C0
:101500008DFF227A31002800FFF762FF6269310007
:101510002800FFF79DFFA26931002800FFF7A5FF13
:10152000E26931002800FFF7ADFF62683100280052
:10153000FFF780FFE26831002800FFF7C6FF3100A7
:101540002800FFF7AEFF226931002800FFF7B0FF47
:1015500000E0034F3800F2BD0000CFBF0000304074
:1015600001005A000122002800F0EC80002900F060
:10157000E980754A12680B7A63F392420B7B13F091
:10158000030363F311420B7813F0070363F31A624A
:101590008B7863F39E7291F8283063F3000291F820
:1015A000343063F341020B7F63F382024B7F63F3BA
:1015B000C30291F8403063F38A2291F84030DBB2E5
:1015C0005B08DBB263F3492291F8703063F30822C1
:1015D00091F8713013F0030363F30D3202600A7A5D
:1015E000002A02D10022826007E00A7A012A02D191
:1015F0004A69826001E0012282600A6A02614A6AE5
:101600004261CA6A82610A6BC2614A6902628A697E
:1016100042624E4A126891F8443003F0FF03120A06
:1016200012021A4391F84C3003F0FF0363F31742A0
:1016300091F85C3003F0FF0363F31F6291F86C30A4
:1016400003F0FF0363F30F224264414A126891F8EA
:10165000643003F0FF0363F30F2291F8543003F07A
:10166000FF03120A12021A4382643A4A126891F87E
:10167000413013F00303920892001A4391F860304E
:1016800013F0030363F38B2291F8483013F0030344
:1016900063F3051291F8503013F0030363F309224A
:1016A00091F8583013F0030363F3871291F8683010
:1016B00013F0030363F38302C264274A126891F8AC
:1016C000723013F00703D208D2001A4391F8733036
:1016D00013F0070363F30612426591F83520826721
:1016E0001E4A12680B7C13F00303920892001A43FF
:1016F000CB7C13F0030363F387124B7C13F00303DB
:1017000063F383028B7C13F0030363F3051202651A
:10171000134A1268CB8863F31F428B889BB21B0A63
:101720009BB263F30F220B78052B06D1097901F0E8
:10173000FF01120A12020A4302E0497861F307022C
:101740000263002210007047986908109C69081015
:10175000A0690810A4690810A8690810AC690810ED
:10176000B0690810016851F00041016070474030D5
:10177000016851F01001016070474030016851F07C
:101780000401016070470268531C036011707047C8
:10179000022801D3012010E00B00DBB2042B01DB97
:1017A00001200AE0DFF8CC3703EB8000C9B2405CCF
:1017B000824201D3012000E000207047F8B5040008
:1017C0000F0015001E00022C01D301202AE02A0080
:1017D0003900C9B22000FFF7DBFF012801D1012049
:1017E00020E006983900C9B202291ED1B6F5803F23
:1017F00019D2202817D24FF4C052DFF87C176303A8
:101800000B4403EB850313441F6866F317271F601F
:101810006403214401EB850111440A6860F3C702A7
:101820000A600020F2BD0120FCE7FFB2032F1FD1A8
:10183000B6F1807F1AD2202818D24FF4E052DFF898
:10184000381763030B4403EB850313441F6807F049
:10185000FF0757EA06271F606403214401EB850157
:1018600011440A6860F3C7020A60DAE70120D9E789
:101870000120D7E700B20012C0B27047F8B50500EA
:101880000E001700280000B2FFF7F4FF040020004C
:10189000C0B2022801D3012024E03A003100C9B2CD
:1018A0002000C0B2FFF774FF012801D1012019E028
:1018B000DFF8C4162000C0B2400308442A00D2B2A8
:1018C00000EB8200D0F8000CF6B266F3092067F353
:1018D0000700E4B264032144EDB201EB8501C1F8D5
:1018E000000C0020F2BD70B504000D001600022CA3
:1018F00001D301201DE032002900C9B22000FFF70A
:1019000047FF012801D1012013E0DFF86C166003C6
:10191000085850F0004050F0407050F47F00EDB295
:1019200065F3092066F307006203885064030859D1
:10193000002070BDD0F840037047D0F80803C00500
:10194000C00D7047C0F840127047D0F80802C005BB
:10195000C00D7047D0F80802C0F3C030704738B5EA
:1019600005002800FFF7F1FF04002800FFF7F2FF51
:101970000419002C01D1012000E00020C0B232BDCA
:10198000C0F8C81F7047D0F8C80F7047C0F8881F4C
:101990007047D0F8880F7047016851F0004101602E
:1019A000704738B504001500C9B2002906D00229D5
:1019B0001ED010D3042935D027D340E0DFF8BC0572
:1019C000A06001202073112060734FF48C70E081BF
:1019D0001220208239E0DFF8A805A06001202073E2
:1019E0001120607340F21D10E0816B2020822CE0FA
:1019F000DFF89005A06001202073112060734FF480
:101A00008E70E0816A2020821FE0DFF87C05A060F4
:101A1000022020731120607340F21B10E0816920C6
:101A2000208212E0DFF86405A060012020731320FB
:101A300060734FF48D70E0816820208205E07C2285
:101A4000DFF84C150020FFF7D0FBEDB2002D06D0DB
:101A5000022D1ED010D3042D35D027D340E0DFF85F
:101A60001C05206000202071112060714FF48C70E3
:101A7000E0811220208239E0DFF804052060002098
:101A800020711120607140F21D10E0816B202082D6
:101A90002CE0DFF8F004206000202071112060713C
:101AA0004FF48E70E0816A2020821FE0DFF8D804B6
:101AB0002060012020711120607140F21B10E08134
:101AC0006920208212E0DFF8C40420600020207129
:101AD000132060714FF48D70E0816820208205E052
:101AE000A822DFF8AC140020FFF77FFB31BD10B552
:101AF000C0B2002806D002280AD006D304280DD090
:101B000009D30EE0DFF88C4411E0DFF88C440EE0DE
:101B1000DFF888440BE0DFF8884408E0DFF884440D
:101B200005E0BD22DFF868140020FFF75EFB20000F
:101B300010BD38B50400DFF87054C9B22000C0B23F
:101B400055F82000FFF7FEFE2000C0B255F8200037
:101B5000FFF705FF0028F7D031BD70B505000E0076
:101B6000140006E031782800C0B2FFF7E2FF641EDF
:101B7000761C002CF6D170BD38B504000D0005E0D0
:101B800029782000C0B2FFF7D4FF6D1C2878002808
:101B9000F6D131BD70B504000D000020DFF80864F7
:101BA0002000C0B256F82000FFF7C7FE002807D07B
:101BB000E4B256F82400FFF7BDFE2870012000E0D3
:101BC0000020C0B270BD70B505000C00DFF8D8630E
:101BD0002800C0B256F82000FFF7DBFE40084000A6
:101BE00001002800C0B256F82000FFF7CFFE280001
:101BF000C0B256F82000FFF7CCFE30F00200010022
:101C00002800C0B256F82000FFF7C0FE2800C0B27E
:101C100056F82000FFF7BDFE30F02000010028003C
:101C2000C0B256F82000FFF7B1FE2800C0B256F847
:101C30002000FFF7AEFE30F0400001002800C0B2E7
:101C400056F82000FFF7A2FE2800C0B256F8200088
:101C5000FFF79FFE30F0100001002800C0B256F8D8
:101C60002000FFF793FE2800C0B256F82000FFF7CF
:101C700090FE30F4807001002800C0B256F82000B9
:101C8000FFF784FE2800C0B256F82000FFF781FE5F
:101C900030F4806001002800C0B256F82000FFF741
:101CA00075FE002C0ED02800C0B256F82000FFF7B9
:101CB0006AFE50F400700100EDB256F82500FFF7FF
:101CC00065FE0DE02800C0B256F82000FFF75BFE6D
:101CD00030F400700100EDB256F82500FFF756FE13
:101CE00070BD70B505000C00DFF8BC622800C0B202
:101CF00056F82000FFF747FE40084000010028008A
:101D0000C0B256F82000FFF73BFE2800C0B256F8DC
:101D10002000FFF738FE30F0080001002800C0B2B4
:101D200056F82000FFF72CFE2800C0B256F820001D
:101D3000FFF729FE30F0200001002800C0B256F85D
:101D40002000FFF71DFE2800C0B256F82000FFF764
:101D50001AFE30F4807001002800C0B256F820004E
:101D6000FFF70EFE2800C0B256F82000FFF70BFE6A
:101D700030F4007001002800C0B256F82000FFF7D0
:101D8000FFFD2800C0B256F82000FFF7FCFD30F43C
:101D9000006001002800C0B256F82000FFF7F0FDF7
:101DA000002C0ED02800C0B256F82000FFF7EBFD43
:101DB00050F004000100EDB256F82500FFF7E0FDF9
:101DC0000DE02800C0B256F82000FFF7DCFD30F02F
:101DD00004000100EDB256F82500FFF7D1FD70BDFB
:101DE0002DE9F841A7B005000F00160028003100CA
:101DF000C0B2C9B2884201D1012000E000201C001D
:101E0000DFF88C814FF4CE724146C0B2FFF7EDF996
:101E100028002100C0B2C9B2884201D1012000E0EF
:101E2000002040F29D124146C0B2FFF7DEF902A841
:101E3000142100F077FC342100220DF1680840469F
:101E4000FFF754FA4C2100220DF11C084046FFF721
:101E50004DFAFF003A0000235448002100F066FCD0
:101E600007002200D2B23100C9B202A8FFF799FDE3
:101E700008201B909DF80D008DF870001AAA9DF89F
:101E80000C100298FFF72FFB06201B909DF80D0009
:101E90008DF870001AAA9DF814100498FFF723FB20
:101EA00000200790082008900820099002200B903D
:101EB00000200C9000201290002014903A4C280032
:101EC000C0B254F8200000F08BFE39492A00D2B28B
:101ED000382042430A4407A92800C0B254F8200021
:101EE00000F03CFD2800C0B254F82000FFF754FD7C
:101EF0002A00D2B20321BDF91600FFF7BFFCBDF9DD
:101F00001600FFF7B7FC17F01F010091C7F3571336
:101F10002A00D2B20321C0B2FFF750FCBDF916006F
:101F2000FFF7A8FC2A00D2B20321C0B2FFF7DBFC06
:101F3000BDF91800ADF800000320ADF80200012043
:101F40008DF8040007221B482900C9B250F821105F
:101F5000684600F0CBFB00212800C0B2FFF7C1FEAD
:101F600000212800C0B2FFF72EFE28B0BDE8F081A6
:101F7000000000001C69081000000440000031400F
:101F800000023140000531408008314000073140F7
:101F90003C6608100000604000006540000064409E
:101FA00000006340000062404407022800809698C9
:101FB0005C0702283007022800F10103810704D0E2
:101FC00010F8011B820781B1FAD10268A2F1013138
:101FD000914311F0803104BF50F8042FF6E709BA9D
:101FE000B1FA81F100EBD100401CC01A704700002B
:101FF0000CB430B583B00A4606A902910446002508
:102000000194009502AB01A9084878441E3000F005
:1020100033FE019A157000284EBF04460198041B38
:10202000204603B030BC5DF80CFB00BF5BF7FFFF40
:1020300082688918816003E082684169521A82606F
:10204000816842699142F7D27047C2688918C160BD
:1020500003E0C2684169521AC260C1684269914294
:10206000F7D2704770B50400002C01D0012000E0C9
:1020700000205422DFF8C415C0B2FFF7B6F80025DF
:10208000207850F0010020700020A0600020E06067
:10209000606920616078002803D0022810D007D33F
:1020A00015E06169002266683000FFF71FF90EE055
:1020B00061694900002266683000FFF717F906E001
:1020C00061698900002266683000FFF70FF900207F
:1020D00020702800C0B270BD10B50400002C01D0E3
:1020E000012000E000207022DFF85015C0B2FFF799
:1020F0007CF860692169401A10BD2DE9F84305009C
:102100001600002D01D0012000E000200C00AA22C2
:10211000DFF82815C0B2FFF768F800270020002C70
:1021200001D10327B5E0287810F0050F01D004276E
:10213000AFE0287850F0040028702869B042C0F061
:10214000A380D5F81480A868B8EB0008B04567D222
:102150006878002803D0022841D01FD390E042467F
:1021600021006868AB6800EB0309484600F0F8FFFF
:1021700041462800FFF75CFFB6EB080204EB0801BC
:102180006868AB6800EB0304200000F0E9FFB6EBE1
:10219000080841462800FFF74BFF71E05FEA48025C
:1021A00021006868AB6800EB4309484600F0D8FF9F
:1021B00041462800FFF73CFFB6EB0802520004EB53
:1021C00048016868AB6800EB4304200000F0C8FFDA
:1021D000B6EB080841462800FFF72AFF50E05FEA07
:1021E000880221006868AB6800EB8309484600F06C
:1021F000B7FF41462800FFF71BFFB6EB080292002D
:1022000004EB88016868AB6800EB8304200000F0F1
:10221000A7FFB6EB080841462800FFF709FF2FE0AB
:102220006878002803D002281DD00ED328E03200A1
:1022300021006868AB6800EB0304200000F090FF09
:1022400031002800FFF7F4FE1AE0720021006868F0
:10225000AB6800EB4304200000F082FF310028004F
:10226000FFF7E6FE0CE0B20021006868AB6800EB07
:102270008304200000F074FF31002800FFF7D8FE2F
:102280002869861B2E6100E00527287810F0FB00E6
:1022900028703800C0B2BDE8F2832DE9F047050090
:1022A0000E001F00002D01D0012000E000201400CE
:1022B000DFF8888340F25B124146C0B2FEF795FF1B
:1022C000002C01D0012000E000204FF4AE72414606
:1022D000C0B2FEF78AFF5FF0000800200020002E49
:1022E00002D15FF003088BE0297811F0030F03D0CF
:1022F00020605FF006089CE02800FFF7EDFE2168F3
:10230000884209D220605FF00708002804D12878AD
:1023100010F0F70028708CE0287850F00800287042
:10232000D5F81490E868B9EB00092068814522D3FC
:102330006878002803D0022813D008D35CE0226814
:102340006868E9680144300000F00AFF54E0226840
:1023500052006868E96800EB4101300000F000FFBE
:102360004AE0226892006868E96800EB8101300069
:1023700000F0F6FE40E06878002803D0022827D05D
:1023800011D339E04A466868E9680144B2465046CC
:1023900000F0E6FE2268B2EB090269684E443000A4
:1023A00000F0DEFE28E05FEA49026868E96800EBB9
:1023B0004101B246504600F0D3FE2268B2EB09025A
:1023C0005200696806EB4906300000F0C9FE13E0D0
:1023D0005FEA89026868E96800EB8101B24650460D
:1023E00000F0BEFE2268B2EB09029200696806EBBB
:1023F0008906300000F0B4FE287810F0F70028704D
:10240000FFB2002F15D128780B2802D15FF0020807
:102410000FE0287850F00200287021682800FFF7AC
:1024200014FE2969206841182961287810F0FD0000
:1024300028704046C0B2BDE8F0872DE9F04705009E
:102440000E001F00002D01D0012000E0002014002C
:10245000DFF8E8814FF4DF724146C0B2FEF7C5FEF7
:10246000002C01D0012000E0002040F2BF124146C4
:10247000C0B2FEF7BAFE5FF0000800200020002E78
:1024800002D15FF00308ABE0297811F0070F03D009
:1024900020605FF00608AFE02800FFF71DFE21680E
:1024A000884209D220605FF00708002804D128780C
:1024B00010F0F70028709FE0287850F0080028708E
:1024C000E868A968884203D3A8682168884228D3AD
:1024D0006878002803D0022817D00AD37CE022684D
:1024E0006968AB6820681B1A1944300000F038FE98
:1024F00072E0226852006968AB6820681B1A01EB21
:102500004301300000F02CFE66E02268920069680A
:10251000AB6820681B1A01EB8301300000F020FE3D
:102520005AE0D4F80090A868B9EB00096878002850
:1025300003D0022835D018D34EE04A46686869694E
:10254000B1EB09010144B246504600F009FE226891
:10255000B2EB09026968AB6820681B1A194406EBE4
:102560000904200000F0FCFD36E05FEA49026868DB
:102570006969B1EB090100EB4101B246504600F038
:10258000EFFD2268B2EB090252006968AB6820686F
:102590001B1A01EB430106EB4904200000F0E0FDAB
:1025A0001AE05FEA890268686969B1EB090100EB2A
:1025B0008101B246504600F0D3FD2268B2EB090219
:1025C00092006968AB6820681B1A01EB830106EB77
:1025D0008904200000F0C4FD287810F0F70028706E
:1025E000FFB2002F08D128780B2802D15FF0020833
:1025F00002E02800FFF736FD4046C0B2BDE8F08794
:10260000F8B504000E0017001D00002C01D00120B9
:1026100000E000204FF407720849C0B2FEF7E5FD64
:10262000002067600021217066700021A1600021F8
:10263000E16025616561C0B2F2BD0000006608106E
:10264000010009B2002908D4012210F01F018A40BC
:102650001B4900B2400941F820207047010009B22F
:10266000002908D4012210F01F018A40154900B248
:10267000400941F820207047020012B2002A04D419
:102680004901114A00B2115407E049010F4A00B252
:1026900010F00F00104400F8041C7047002800D10F
:1026A00062B60B480168491C0160704772B6084960
:1026B0000868002802D00868401E08600868704753
:1026C00000E100E080E200E000E400E018ED00E05E
:1026D000480D022880B5FFF7E9FFFEF7A9FA01BD12
:1026E00080B5C9B200B2FFF7C7FF01BD70B50400E5
:1026F0000D001600200000F087FD2900B4F900004D
:1027000000F0C1FD3100C9B2B4F90200FFF7E8FFE3
:10271000B4F90200FFF7A2FFB4F90200FFF790FF3F
:1027200070BD0000002200F0C5BD0000BBBBE1B1E0
:10273000B2F5803F80F07E80022A1ED98C46B1FB24
:10274000F2F102FB11C31B0443EA1043B3FBF2FC9A
:1027500002FB1C3380B240EA0343B3FBF2F002FBFE
:10276000103240EA0C4000237047022A05D9844603
:10277000B0FBF2F002FB10C270474AB105D100F085
:10278000010249085FEA30007047002200237047C9
:1027900000F0AABD0B00020000210020704790420B
:1027A00071EB030CF6D3B3F5803F2FD2F0B5B3FA3B
:1027B00083F7B1FA81F4A7F10F0E3D1B5340CEF120
:1027C000200602FA0EF2F3415340B5F10F0746D846
:1027D0000F3C2C444140C4F12006A040F14141404F
:1027E000B1FBF3F603FB1611A2FB0645001BA94142
:1027F00002D2761E8018594180EA010221FA0EF3B6
:1028000062FA0EF200215A403046F0BD30B4B1FBFE
:10281000F3FC03FB1C11A2FB0C45001BA94103D2D6
:10282000ACF1010C8018594130BC02460B466046A1
:1028300000217047B2F1807F65D3F0B5B2FA82F71C
:10284000B1FA81F4C7F10F063D1B22FA06F307F136
:10285000110EF24120355A40B5F10F07B8D9414069
:10286000C4F12006A040F1414140B1FBF3FC03FB61
:102870001C11A2FB0C45001BA94103D2BCF1010CA9
:10288000801859410F2F12D30F3FC90341EA50411D
:10289000B1FBF3F603FB1611A2FB0645D4EBC030E7
:1028A000A94102D2761E8018594146EACC3C07B3B2
:1028B0004140C7F12006B840F1414140B1FBF3F679
:1028C00003FB1611A2FB0645001BA94102D2761E8E
:1028D0008018594180EA010221FA0EF3C7F1200461
:1028E00062FA0EF20CFA07F05A402CFA04F1304367
:1028F000F0BD80EA010221FA0EF3002162FA0EF225
:1029000060465A40F0BD8C46B1FBF2F102FB11C3A8
:102910001B0243EA1063B3FBF2FC02FB1C331B02F5
:102920004CEA002043EA1063B3FBF2FC02FB1C33C9
:102930001B024CEA002043EA1063B3FBF2FC02FBEB
:102940001C331B024CEA002043EA1063B3FBF2FC89
:1029500002FB1C324CEA0020002370472DE9F44FA3
:10296000DFF8D822DFF8D8321B68DFF8D8422468B5
:10297000DFF8D4522D68DFF8D4623668DFF8D07201
:102980003F68DFF8D0C2DCF800C0DFF8CCE2DEF848
:1029900000E0DFF8C882D8F80080DFF8C492D9F8E8
:1029A0000090DFF8C0A2DAF800A0002800F015813E
:1029B000002900F012810A68022A06D191F8262027
:1029C000002A02D15FF0000B03E0D1F804B0BBF1A4
:1029D000010B91F82420002A01D0012200E00022FE
:1029E00062F3104333F440436BF30303022262F3B8
:1029F000196303600A7812F0030262F31964046435
:102A000091F82520002A01D0012200E0002262F383
:102A10008615CA7E002A01D0012200E0002262F35E
:102A20008A254A7E002A01D0012200E0002262F3BA
:102A300008258A7E002A01D0012200E0002262F3EC
:102A400049258A6B521E12F00F0262F313450A6980
:102A5000521E12F00702ED08ED0015434A6962F3B9
:102A600004154A69520862F3451585640A7B002AF9
:102A700001D0012200E0002262F308260A7E002A2B
:102A800001D0012200E0002262F349268A68521E2A
:102A900012F01F02760976011643C0F800630A7F20
:102AA00002F0FF023F0A3F02174391F8202002F094
:102AB000FF0262F31747C0F8107391F82720002A2D
:102AC00001D0012200E0002262F3082C0A69521EA4
:102AD00012F007025FEADC0C5FEACC0C52EA0C0C45
:102AE0004A6962F3041C4A69520862F3451CC0F843
:102AF00044C00A7B002A01D0012200E0002262F3D8
:102B0000082E8A68521E12F01F025FEA5E1E5FEAFC
:102B10004E1E52EA0E0E0A68012A01D1012200E07F
:102B2000002262F3104EC0F800E291F83C2002F05F
:102B3000FF025FEA18285FEA082852EA0808C0F88E
:102B4000048391F82820002A01D0012200E000220D
:102B500062F35969CA6A012A01D1012200E0002208
:102B600062F318694A6B012A01D1012300E00023B6
:102B7000009A63F3104991F8303003F0FF035FEAE5
:102B800019295FEA092953EA0909C0F8509091F818
:102B9000443003F0FF035FEA1A2A5FEA0A2A53EA85
:102BA0000A0AC0F804A28B6CC0F8883F096CC0F810
:102BB000C81F002A10D000205060002010600020A4
:102BC00090600020D060002010620020D0620020C1
:102BD0001063DFF89400506300221000BDE8F28F0C
:102BE000DFF8881001605FF4401101640021816406
:102BF00040F20711C0F800130022C0F8042300229D
:102C0000C0F8102300224264C0F800120021C0F86E
:102C10000412002101650021C0F8C81E0021C0F87F
:102C2000881E0021C0F8C81F0021C0F8881F00219D
:102C3000C0F8081F0021C0F8481F70470160AA00B3
:102C400054690810586908105C6908106069081018
:102C500064690810686908106C69081070690810C8
:102C60007469081078690810EFCDAB000F000003FD
:102C700040F02000704700002DE9F84F94B00DF1AE
:102C80002E051E9CDFF8A8936C7012950024089402
:102C900002914FF0FF340DF130081394824616462E
:102CA0001D460AE016F8011B0298D0470028029042
:102CB00000F0CF800898401C0890307840B125285B
:102CC000F0D100200021002205900691079203E038
:102CD0000898AFE141F0010116F8010F2028F9D062
:102CE00023280CD02B2804D02D2805D0302809D03B
:102CF0000BE041F00201EFE741F00401ECE741F0A5
:102D00000801E9E741F01001E6E72A280CD12A681A
:102D100052F8040B2A6000280A9003D540420A901A
:102D200041F00401761C10E00A9209E00A98484537
:102D300005DA00EB800302EB4302303A0A92761C7C
:102D40003278A2F130000A28F0D330782E2802D051
:102D50001398099021E016F8010F2A2806D1286857
:102D600050F8042B28600992761C16E02D280CBF21
:102D7000761C0020002209920AE040B9099A4A45CF
:102D800005DA02EB820403EB4403303B0993761C23
:102D90003378A3F130020A2AEFD3ADF82C100FF2EA
:102DA0009830317800F0A2FA08B116F8010B8DF8CE
:102DB0002E009DF82E00682804BF3178682903D1C1
:102DC00062208DF82E00761C0CA8049016F8012BBA
:102DD000252A114614D0582A60D0632A00F0BD80FD
:102DE000642A18BF692A00F086806F2A56D0702A9C
:102DF00048D0732A09D0752A18BF782A4ED0B3E07C
:102E0000012205928DF830100FE0286850F8044B2D
:102E1000286003941CBB12994878E8B10FF2203067
:102E200000F070FA4042012813D10A9F05980799D3
:102E30003F1A06987F1A9DF82C103F1A480700F198
:102E4000AB802021002F8DF8001040F3A5803C4678
:102E500097E04FF0FF30EDE0C0A00390E5E7099F59
:102E6000002F04D52046FFF7A7F8044608E03A46AD
:102E70000021204600F066FA002814BF041B3C46DF
:102E80000694D2E728680168021D2A6001910CA906
:102E90000391782101A800F0D0F8C6E79DF82E0034
:102EA000622802D0682806D00BE0296851F8040B8C
:102EB0002960C0B209E0296851F8040B296080B28A
:102EC00003E0296851F8040B296001909DF82C005B
:102ED00001073CD50198002839D042F0200178291B
:102EE00035D10598302108F80010401C431C05938B
:102EF00008F800202BE09DF82E00622802D06828F8
:102F000006D00BE0296851F8040B296040B209E0B3
:102F1000296851F8040B296000B203E0296851F8D0
:102F2000040B29600028019002D505982D210AE0A4
:102F3000BDF82C00810702D505982B2103E0C007BE
:102F400005D50598202108F80010401C05900CA814
:102F500005990144039111469CE7012005902868DA
:102F600050F8041B28604DE701210591252311002D
:102F70008DF830303FF459AF0220059088F80120D9
:102F800053E701236A4601A9504600F0BEF8002825
:102F90007FF45FAF641EF4D1059C0DF1300B64B17A
:102FA0001BF8011B0298D047002802903FF451AF54
:102FB0000898401C641E0890F2D1079C3020002C19
:102FC0008DF800000ADD01236A4601A9504600F091
:102FD0009CF800287FF43DAF641EF4D1DDF80CB0FE
:102FE000069C64B11BF8011B0298D0470028029090
:102FF0003FF42FAF0898401C641E0890F2D19DF852
:103000002C0041077FF559AE2020002F8DF80000DD
:103010007FF753AE3C4601236A4601A9504600F0B3
:1030200074F800287FF415AF641EF4D145E6000063
:10303000CBCCCC0C15B0BDE8F08FF8B504460D46EE
:10304000E66828466F2808BF082305D0FFF710FE62
:10305000782814BF0A231023216818220846642DFB
:1030600018BF692D02D1002948BF404258B9216AD2
:1030700049B9082B27D194F82800010723D530201F
:103080001722F0751FE0B0FBF3F703FB1700303099
:10309000521EC1B23A2903DAB054380003D106E017
:1030A00040195138F8E7A168B718B942EBD3082B9B
:1030B00009D194F82800010705D5B05C302802D06A
:1030C000521E3020B054C2F11803206A6361B11857
:1030D0008342A16007DA218DC31A4FF6EF700140D9
:1030E000A3612185F1BD00280ED594F8280000F0D9
:1030F0001400102808D1626A2169A069521A121AB4
:10310000D21A012AA8BFA261F1BDF8B505460E4644
:1031100017461C4600205CB117F8011B7068A847D1
:10312000706030B1F069401CF0610020641EF3D182
:10313000F2BD4FF0FF30F2BD686C747A4C000000B5
:103140007072696E74665F733A20626164202573E1
:1031500020617267756D656E7400000000000000EC
:1031600062B38B0708D0521E11F8013B00F8013BF7
:1031700000F024808B07F6D1830740F0208000BF49
:10318000103A07D330B4B1E83810103AA0E838103C
:10319000F9D230BC530724BFB1E80810A0E80810EA
:1031A00044BF51F8043B40F8043BD20724BF31F838
:1031B000022B20F8022B44BF0B7803707047121FBC
:1031C00017D35B0009D151F8043B20F8023B1B0CDC
:1031D000121F20F8023BF6D20BE051F8043B00F836
:1031E000013B1B0A20F8023B1B0C121F00F8013B9D
:1031F000F3D238BF121D521E24BF11F8013B00F854
:10320000013BF8D87047000030B40021234A13680E
:10321000234A1468002832D0224A1568C5F30325D2
:103220000E2D0FD01268C2F303220D2A28D1827806
:1032300012F00F022409240114430279002A15D048
:10324000012214E0827812F00F021B091B011343C4
:103250000279002A01D0012200E0002262F3DF732C
:10326000114AB0F9000042F8203009E0002262F370
:10327000DF740E4AB0F9000042F8204000E0064931
:10328000080030BC70470A4B1A68002A03D01A683D
:1032900000B242F820107047010056007C69081007
:1032A000806908100000204000A0204000C020409D
:1032B000EC06022800B500BF13009646944610396C
:1032C00028BFA0E80C50FAD85FEA417C28BF0CC0A8
:1032D00048BF40F8042BC90728BF20F8022B48BF7D
:1032E00000F8012B00BD000070470000C9B2027851
:1032F0008A421AB11CBF10F8012FF9E718BF00204D
:103300007047000080B500B906A005490B681BB1E5
:1033100022220021984701E000F040F8222002BD5F
:10332000540D0228636F6E73747261696E74206845
:10333000616E646C65723A20626164206D657373BE
:1033400061676500C9B2830706D0521E22D310F808
:10335000013B9942F7D11FE0083A13D302F104026E
:1033600041EA012141EA014150F8043B121F21BF0B
:103370004B40A3F1013C2CEA030C1CF0803FF3D03E
:10338000C9B2001F083210F8013B521E28BF91EA53
:10339000030FF8D818BF0120401E7047012000F02D
:1033A00001B8000080B5AFF30080024A1100182078
:1033B000ABBEFBE726000200DFF8C4110868C0F3CB
:1033C0004000002801D0022002E0086810F001004F
:1033D0007047DFF8B001006810F00100704700008E
:1033E000C21E022A01D3012002E0C01E0860002094
:1033F00070471CB5FF246946FFF7F2FFC0B20028F2
:1034000002D02000C0B207E0DFF8FC01009950F8BC
:10341000210010F00100C0B216BD0000002801D04C
:10342000032801D3012002E0401E086000207047FD
:103430001CB5FF246946FFF7F1FFC0B2002802D097
:103440002000C0B208E0DFF8C40100990901084477
:10345000C06810F00100C0B216BD0000DFF8BC016A
:103460000068800810F00100704738B504002000A3
:10347000C0B2082811D3DFF898511822DFF8941150
:10348000280000F00DFC0020E87540F65B00DFF836
:1034900088110860002000F03BFCDFF8CC11200010
:1034A000C0B251F82000C0F30020002805D0E4B2DB
:1034B00051F8240010F00F0000E0FF2032BD38B5B5
:1034C00004002000C0B2082811D3DFF844511822AC
:1034D000DFF84011280000F0E3FB0020E8754FF40E
:1034E0000960DFF834110860002000F011FCDFF8FB
:1034F0007801E4B250F82400C0F30110C0B232BD2C
:10350000DFF868211368C3F3072303601068C0F372
:10351000C40008607047DFF858211368C3F307231D
:1035200003601068C0F3C4000860704738B5040039
:10353000072C11D3DFF8D8501822DFF8C411280067
:1035400000F0AEFB0020E8754FF4CE70DFF8C81035
:103550000860002000F0DCFBDFF8A00150F8240038
:1035600010F00700010009B2042907D1DFF8880133
:1035700050F8240010F01F0050F4807000B232BDEB
:103580002415264040152640DFF8B01209688A034A
:10359000920B0260090E11F00101C171DFF8A01257
:1035A00009680A00D204D20C82800A00120C02F0D0
:1035B000FF020281090C01F0FF014181DFF8441193
:1035C000096811F00F0202730A00C2F3031242737A
:1035D0000A00120AD204D20CC281090F11F00301B1
:1035E0000174DFF8641309680A00120A12F0070276
:1035F00082710A00120CD205D20D4282890F11F09D
:103600000101017570470000401626400019264050
:10361000540C02288C630810280D02281000274043
:103620001CB50C006946FFF7DBFE0100C9B200299A
:1036300001D0C0B217E0DFF8B404009950F82100BF
:1036400010F07F012160C0F304216160C0F30441E8
:10365000A1600100090F11F003016173C00E10F0A9
:1036600001002073002016BD4012264008002040B3
:10367000080420401CB50C006946FFF7CFFE01008E
:10368000C9B2002901D0C0B235E0DFF810150098AA
:103690000001085800F0FF022260C0F304226260BB
:1036A000C0F30442A260000F10F0030020730098E2
:1036B0000001084442681000C00F6073C2F302703A
:1036C000002801D0012000E00020A07322F07F42FA
:1036D000226100980001084480680100C90F21752B
:1036E0000100090E11F001016175A075000C10F0C8
:1036F0000700E075002016BD00012640001226409C
:10370000D86308103815264080B50100DFF8680539
:103710001822FFF735FD0120DFF860150870002042
:1037200002BDDFF85C150968C90F002908D0DFF871
:103730004C150978002907D100210160032070474A
:10374000002101600320FAE7DFF82C150968016009
:103750000020F4E710B50400FFF72EFE002803D187
:103760000020206003200DE0DFF81005007800281D
:1037700005D0DFF8040580682060002002E000200A
:103780002060032010BD0000DFF8F0140978002944
:1037900005D0DFF8E41449680160002002E0002150
:1037A000016003207047DFF8DC140968C90F0029A5
:1037B00008D0DFF8C8140978002907D1002101607A
:1037C00003207047002101600320FAE7DFF8A81406
:1037D000C96801600020F4E7DFF8AC140968C90F7C
:1037E000002908D0DFF894140978002907D10021B6
:1037F000016003207047002101600320FAE7DFF831
:103800007814096901600020F4E710B50400FFF79F
:1038100025FE002803D10020206003200DE0DFF802
:103820005C040078002805D0DFF84C044069206073
:10383000002002E000202060032010BD301526404B
:103840003415264010B50C00C0B2FFF76FFE0028FB
:103850000ED0012810D0022812D0B0F5887F13D0E6
:1038600040F21111884213D0B0F58A7F14D017E0CE
:103870002000FFF756FF16E02000FFF785FF12E05B
:103880002000FFF767FF0EE02000FFF78CFF0AE043
:103890002000FFF7BAFF06E02000FFF79DFF02E0DF
:1038A00000202060032010BD80B501000020FFF73C
:1038B000C9FF02BD80B50322D2B2824203D20020EA
:1038C0000860012003E0401CC0B2FFF7BBFF02BD4F
:1038D00018B587B004006846FFF7E6FF0100C9B2DB
:1038E000002903D000212160C0B22BE001A8FFF71E
:1038F0004BFE9DF81400022803D1009820600020A0
:1039000020E0DFF888030068C00F002808D0FFF728
:1039100060FDC0B2002807D100202060032011E024
:103920000098206000200DE0009901984143BDF807
:103930000800B1FBF0F09DF80B10491CB0FBF1F052
:103940002060002008B010BD3C152640F0B58BB0BB
:1039500005000C0069462800C0B2FFF7ABFF01006C
:10396000C9B2002903D000212160C0B2BCE0280008
:10397000C0B202284CD307A92800C0B2401CFFF7F0
:103980004FFEC0B2002811D0DFF804631822DFF820
:103990000413300000F084F90020F07540F6631045
:1039A000DFF8F4120860002000F0B2F94F48290057
:1039B000C9B200EB810050F8080CC00F002807D0F6
:1039C0009DF82900022807D10098206000208BE094
:1039D00000982060002087E0EDB26D1C2800FFF702
:1039E00008FD0100C9B2002902D0C0B2FF2803D1EE
:1039F00000202060032077E0009907984143089851
:103A0000B1FBF0F00999B0FBF1F0206000206BE011
:103A100001A92800C0B2401CFFF72CFEC0B200284C
:103A200011D0DFF86C621822DFF86812300000F065
:103A300037F90020F07540F67F10DFF85C1208605F
:103A4000002000F065F955482900C9B20901405825
:103A5000C00F002807D09DF81000022807D1009859
:103A60002060002040E00098206000203CE0EDB2A3
:103A70006D1C2800FFF7DCFC0100C9B2002902D050
:103A8000C0B2FF2803D10020206003202CE09DF865
:103A9000110001281DD1009A0023019E00273F0636
:103AA00047EA162736060598002136184F41A6FB2F
:103AB000020106FB031107FB0211029A039BA3FB01
:103AC0000223FEF733FE000E40EA0120090E2060BB
:103AD00009E00099019841430298B1FBF0F0039985
:103AE000B0FBF1F0206000200BB0F0BD00162640C6
:103AF00010B50323421E0400E4B2002C03D10800D9
:103B0000FFF7E6FE0CE01400DBB2E4B2A34204D3FC
:103B10001000C0B2FFF71AFF02E0C0B2FFF792FE3A
:103B200010BD38B505000C002800C0B2FFF79DFCA1
:103B30000100C9B2FF2904D12000FFF7F2FDC0B295
:103B40001BE06946C0B2FFF7D3FF0100C9B20029EC
:103B500003D000212160C0B20FE02800C0B2FFF7FF
:103B6000AEFCC0B2002805D002280BD006D3032833
:103B70000CD00FE000982060002032BD0098400873
:103B80002060F9E7009880082060F5E70098C008F9
:103B90002060F1E7002020600320EEE700192640B6
:103BA0001FB5040002A90120FFF7BBFF0100C9B245
:103BB000002903D000212160C0B21AE0694601A8A3
:103BC000FFF79EFC01980021421C71F1FF335B015D
:103BD00043EAD26352010098002112184B41029827
:103BE0000021490141EAD0614001FEF79FFD2060BC
:103BF000002004B010BD1FB5040002A90120FFF78A
:103C000090FF0100C9B2002903D000212160C0B299
:103C10001AE0694601A8FFF77EFC01980021421CCA
:103C200071F1FF335B0143EAD26352010098002136
:103C300012184B4102980021490141EAD06140012C
:103C4000FEF774FD2060002004B010BD80B5DFF8E1
:103C50004C100A68C2F303220E2A07D00968C1F388
:103C600003210D2905D1FFF7C6FF02BDFFF798FF1D
:103C7000FBE70120F9E700003C0C0228580D022860
:103C800018152640081526400C15264030152640EC
:103C9000540C0228D8630810280D02280000204088
:103CA00001B58B071AD1830724D1121F21D351F8F4
:103CB000043BA3F1013C2CEA030C1CF0803C04BF44
:103CC00040F8043BF1E79CFA8CFCBCFA8CF1C1F1A2
:103CD00018018B40CB4040F8043B13E0042A09D381
:103CE00011F8013B521E00F8013B5BB18B07F7D185
:103CF000D9E7121D5AB111F8013B521E00F8013BE1
:103D000003B1F8D111001CBF0022FDF7F3FA01BD89
:103D100001BEFEE780B5234A23490B6893423ED09B
:103D20000A60224A12684A62214A8A6202684A602C
:103D300042688A608268CA60C2680A6102694A6130
:103D400042698A618269CA61C2690A62F1EE102A17
:103D500012F0900F23D0174A8A62026ACA62426A3E
:103D60000A63826A4A63C26A8A63026BCA63426BED
:103D70000A64826B4A64C26B8A64026CCA64426CD5
:103D80000A65826C4A65C26C8A65026DCA65426DBD
:103D90000A66826D4A66C26D8A66006EC86600F069
:103DA0000BF801BDFAF9F8F7880A022828ED00E0BF
:103DB000A4A3A2A1ABAAA9A8FEE70000022801D3F0
:103DC000012010E00B00DBB2042B01DB01200AE034
:103DD000DFF8D83303EB8000C9B2405C824201D3E4
:103DE000012000E000207047F8B506000F00150024
:103DF0001C00022E01D301201DE02A003900C9B2A7
:103E00003000FFF7DBFF012801D1012013E038006B
:103E1000C0B2002812D1B4F5807F0DD2DFF8900334
:103E20007603304400EB850010F58050016864F3A0
:103E30000F2101600020F2BD0120FCE7FFB2012F3D
:103E400011D1B4F5803F0CD2DFF86403760330441F
:103E500000EB850010F5A050016864F317210160A4
:103E6000E8E70120E7E70120E5E700B20012C0B271
:103E70007047F8B505000E001700280000B2FFF7E4
:103E8000F4FF04002000C0B2022801D3012024E086
:103E90003A003100C9B22000C0B2FFF78FFF0128FD
:103EA00001D1012019E0DFF808132000C0B240035F
:103EB00008442A00D2B200EB8200D0F8000CF6B21F
:103EC00066F3092067F30700E4B264032144EDB20E
:103ED00001EB8501C1F8000C0020F2BD70B50400B3
:103EE0000D001600022C01D301201DE03200290034
:103EF000C9B22000FFF762FF012801D1012013E0C1
:103F0000DFF8AC126003085850F0004050F04070E9
:103F100050F47F00EDB265F3092066F307006203F9
:103F2000885064030859002070BD0100C9B20029FF
:103F300005D0022907D004D3032906D006E03E208D
:103F400004E0412002E09A2000E08B20C0B27047DC
:103F50000100C9B2002905D0022907D004D30329E2
:103F600006D006E00A2004E00A2002E00A2000E071
:103F70000A20C0B270470100C9B2002905D0022949
:103F800007D004D3032906D006E03F2004E04220F6
:103F900002E09B2000E08C20C0B270470100C9B253
:103FA000002905D0022907D004D3032906D006E052
:103FB0000B2004E00B2002E00B2000E00B20C0B23D
:103FC000704770B5040000207A482100C9B2405CF7
:103FD000002813D078482100C9B250F8210000F021
:103FE000BAF905002000C0B2FFF7C5FFC0B200F06B
:103FF000F9F9012812D02DB26D420FE06E4E6F4DCF
:104000002000C0B256F8200000F01AFB2D1A4FF421
:104010000041E4B256F8240000F010FB280000B282
:1040200070BD80B563490200D2B2895C002907D017
:104030000021614AC0B252F8200000F08AF906E07F
:1040400000215D4AC0B252F8200000F0F7FA01BD2D
:104050002DE9F8419BB004000E0015003421002228
:104060000EAF3800FDF742F908200F903000C0B2C3
:10407000FFF76EFF8DF840003000C0B2FFF755FF2C
:1040800007005FF008083000C0B2FFF74EFF4C4E4B
:104090000EAA97FBF8F108FB11773900C0B2C010E7
:1040A000C0013044FDF71FFA08200F902800C0B26D
:1040B000FFF774FF8DF840002800C0B2FFF75BFFE8
:1040C00007005FF008082800C0B2FFF754FF0EAAEF
:1040D00097FBF8F108FB11773900C0B2C010C0019E
:1040E0003044FDF700FA374D002201212000C0B214
:1040F00035F91000FFF7BDFE2000C0B235F9100001
:10410000FFF7B3FE092300220121C0B2FFF76CFEC6
:104110002000C0B235F91000FFF7A7FE00220121F0
:10412000C0B2FFF7DBFE244D2000C0B255F82000DE
:1041300000F060FA00208DF8000000208DF80100EA
:1041400000208DF82C0000208DF82D0000208DF827
:104150002E0003208DF82F0000208DF83000022063
:104160008DF8310003208DF8320069462000C0B27E
:1041700055F8200000F09EF92000C0B255F820004C
:1041800000F057FA2000C0B255F82000FDF7EFFA12
:104190002000C0B255F82000FDF7EFFA00200549D5
:1041A000E4B208551CB0BDE8F08100001C6908109D
:1041B000000004404C0D0228080702280080FFFF81
:1041C000000031400007022810B4012291F84C3061
:1041D000052B03D291F84D30052B01D31000A7E039
:1041E000002800F0A480002900F0A180514A126844
:1041F0004B7963F392428B7913F0030363F311421B
:104200000B7A13F0070363F31A62CB7963F39E72A0
:104210000B7D63F3000291F8243063F341020260E6
:104220000A7910F130031C6862F307041C604A79B4
:10423000012A0BD18A79002A02D10022826007E08C
:104240008A79012A04D10A68826001E00122826031
:10425000CA6802610A694261CA6982610A6AC26106
:104260000A680262344A12680B7E03F0FF03120AE6
:1042700012021A4391F8303003F0FF0363F3174240
:1042800091F8403003F0FF0363F31F6291F8483068
:1042900003F0FF0363F30F224264284A126891F887
:1042A000383003F0FF03120A12021A4391F8283043
:1042B00003F0FF0363F30F228264214A12688B7DAF
:1042C00013F00303920892001A4391F8253013F07B
:1042D000030363F38B2291F82C3013F0030363F391
:1042E000051291F8343013F0030363F3092291F8B7
:1042F0003C3013F0030363F3871291F8443013F05A
:10430000030363F38302C2640E4A126891F84C30CF
:1043100013F00703D208D2001A4391F84D3013F07E
:10432000070363F306124265497D8167002210008E
:1043300010BC704784690810886908108C690810DF
:104340009069081094690810016851F000410160FB
:10435000704781607047806870477830016851F01D
:1043600001010160704710F170010A6852F001020A
:104370000A60006F704700000069C84010F001003B
:104380007047012212FA01F181607047012212FA8E
:1043900001F141607047012212FA01F1C1607047DA
:1043A00080B5C9B200290ED00100C9B2082291FB24
:1043B000F2F302FB13113E4AC0B2C010C001104418
:1043C000FFF7DFFF0DE00100C9B2082291FBF2F315
:1043D00002FB1311364AC0B2C010C0011044FFF7EF
:1043E000D5FF01BD80B50100C9B2082291FBF2F3EF
:1043F00002FB13112E4AC0B2C010C0011044FFF7D7
:10440000BBFFC0B202BD80B50100C9B2082291FB5A
:10441000F2F302FB1311264AC0B2C010C0011044CF
:10442000FFF7B9FF01BD2DE9F8418DB004000E0082
:1044300015001F0034210022E8464046FCF756FFD5
:10444000F6B2002E0ED1FFB2002F02D0022F03D001
:1044500005E00F2001900DE0082001900AE00820FF
:10446000019007E0FFB2042F02D10F20019001E07C
:104470000E2001902000C0B2C0280FD02100C9B288
:1044800008206A4691FBF0F300FB13110848230053
:10449000DBB2DB10DB011844FDF725F82900C9B2B7
:1044A0002000C0B2FFF77CFF0EB0BDE8F081000035
:1044B0000000314010B40122002800F08D80002956
:1044C00000F08A80464A12680B7813F0030363F306
:1044D00015524B7813F0030363F31142032363F384
:1044E0001A620B7A63F39E724B78012B02D04B78E1
:1044F000022B06D10B7D63F3000291F8243063F3A5
:1045000041020260CA6802610A694261CA69826145
:104510000A6AC2614A680262324A126891F82E3011
:1045200063F3174291F8303063F31F6291F8313032
:1045300063F30F224B78032B07D10B7E03F0FF03AD
:10454000120A120214001A0022434264264A126818
:1045500091F8323063F307024B78032B05D191F8C1
:10456000283003F0FF0363F30F2282641F4A1268AE
:1045700091F82D3013F0030363F3051291F82F30F7
:1045800013F0030363F3871232F00C0232F440722B
:104590004B78032B0BD14B7D13F003039208920051
:1045A0001A4391F8253013F0030363F38B22C2649E
:1045B0000F4A126891F8333013F00703D208D20083
:1045C0001A4391F8343013F0070363F3061242657F
:1045D00091F82C1081670022100010BC7047000079
:1045E000B4690810B8690810BC690810C0690810DF
:1045F000C4690810F0210160002181605FF0FF3183
:10460000016141618161C161016241624FF4807168
:104610004164002181644FF6FF71C164322141651C
:10462000FF210165002101670021416700218167A9
:104630007047016851F00041016070478160704728
:1046400080687047D0F80803C005C00D704710F5AA
:1046500041710A6852F480320A6010F541710A68AB
:1046600032F480320A60D0F804037047C0F8401278
:104670007047D0F80802C005C00D7047D0F8080296
:10468000C0F3C030704738B505002800FFF7F1FFD0
:1046900004002800FFF7F2FF0419002C01D10120CB
:1046A00000E00020C0B232BD0068C0F381300028B5
:1046B00001D1802000E04020704780B5FFF7C2FFA5
:1046C00002BD80B5FFF7C3FF01BDC9B2082902D002
:1046D000102946D096E0DFF8E4110200D2B251F87A
:1046E0002220126832F440420300DBB251F823303A
:1046F0001A600200D2B251F82220D2F800225209E8
:1047000052010300DBB251F82330C3F8002202004B
:10471000D2B251F82220D2F8002252F00702030050
:10472000DBB251F82330C3F800220200D2B251F8B4
:104730002220D2F80023520952010300DBB251F8C3
:104740002330C3F800230200D2B251F82220D2F85D
:10475000002352F00702C0B251F82000C0F8002335
:1047600050E0DFF858110200D2B251F8222012684E
:1047700032F440420300DBB251F823301A600200E9
:10478000D2B251F82220126852F480420300DBB208
:1047900051F823301A600200D2B251F82220D2F828
:1047A0000022520952010300DBB251F82330C3F852
:1047B00000220200D2B251F82220D2F8002252F098
:1047C0000F020300DBB251F82330C3F800220200CD
:1047D000D2B251F82220D2F800235209520103002C
:1047E000DBB251F82330C3F800230200D2B251F8F3
:1047F0002220D2F8002352F00F02C0B251F820005C
:10480000C0F8002370472DE9F84307000D0014009D
:1048100008213800C0B2FFF758FFDFF8A460380065
:10482000C0B2305C06280FD03800C0B2305CC01077
:10483000DFF8901011EBC01101203A00D2B2B25C47
:1048400012F0070290400860DFF870802978380085
:10485000C0B258F82000FFF709FF6D1C3800C0B245
:1048600058F82000FFF720FF81463800C0B258F802
:104870002000FFF7FEFE8145F0D0641E002CE3D13E
:104880003800C0B258F82000FFF7FDFE0028F7D02E
:104890003800C0B2305C06280ED03800C0B2305CA0
:1048A000C010DFF8F01011EBC0110120FFB2F25D73
:1048B00012F0070290400860BDE8F1832407022847
:1048C000500D0228040031402DE9F84380460D00C8
:1048D00016001C0008214046C0B2FFF7F6FEDFF8C4
:1048E000B8704046C0B2385C06280FD04046C0B20F
:1048F000385CC010DFF8A41011EBC0110120424653
:10490000D2B2BA5C12F0070290400860DFF89090D3
:104910004046C0B259F82000FFF7D3FE2978404640
:10492000C0B259F82000FFF7A1FE6D1C4046C0B28E
:1049300059F82000FFF7A7FE0028F7D04046C0B284
:1049400059F82000FFF7B9FE0028F7D04046C0B262
:1049500059F82000D0F840033070761C641E002CFB
:10496000DCD14046C0B2385C06280FD04046C0B209
:10497000385CC010074911EBC01101205FFA88F8BC
:1049800017F8082012F0070290400860BDE8F18394
:104990000000000008003140500D022804003140A2
:1049A00024070228022801D301200FE00B00DBB20C
:1049B000042B01DB012009E0AA4B03EB8000C9B204
:1049C000405C824201D3012000E000207047F8B52E
:1049D00006000F0015001C00022E01D301201CE070
:1049E0002A003900C9B23000FFF7DCFF012801D1ED
:1049F000012012E03800C0B2002811D1B4F5807F48
:104A00000CD299487603304400EB850010F58050B5
:104A1000016864F30F2101600020F2BD0120FCE772
:104A2000FFB2012F10D1B4F5803F0BD28E48760330
:104A3000304400EB850010F5A050016864F31721A5
:104A40000160E9E70120E8E70120E6E700B2001293
:104A5000C0B27047F8B505000E001700280000B27C
:104A6000FFF7F4FF04002000C0B2022801D30120A8
:104A700023E03A003100C9B22000C0B2FFF792FF34
:104A8000012801D1012018E077492000C0B240037D
:104A900008442A00D2B200EB8200D0F8000CF6B233
:104AA00066F3092067F30700E4B264032144EDB222
:104AB00001EB8501C1F8000C0020F2BD70B50400C7
:104AC0000D001600022C01D301201CE03200290049
:104AD000C9B22000FFF766FF012801D1012012E0D2
:104AE00061496003085850F0004050F0407050F4A5
:104AF0007F00EDB265F3092066F30700620388507A
:104B000064030859002070BDF8B50600F600574C44
:104B1000574D00212078C0012844FFF71AFC12E00D
:104B20002078C0012844FFF716FCB842F8D320785B
:104B3000C0012844FFF70FFC361A00212078C0017D
:104B40002844FFF706FC4CF25137BE42E8D22078E9
:104B5000C0012844FFF7FFFB8642F8D2F1BDF8B54B
:104B600004004FF4FA504443404D414E0021287850
:104B7000C0013044FFF7EDFB14E02878C001304459
:104B8000FFF7E9FBB842F8D33A4F3C192878C00147
:104B90003044FFF7E0FB3F1839002878C00130446B
:104BA000FFF7D7FB4CF25137BC42E6D22878C00160
:104BB0003044FFF7D0FB8442F8D2F1BD38B594B051
:104BC000502100226C462000FCF790FB2A4C00226A
:104BD0000121B4F90000FFF73DFFB4F90000FFF731
:104BE00035FF092300220121C0B2FFF7F0FEB4F91E
:104BF0000000FFF72BFF00220121C0B2FFF75EFF8C
:104C00005FF0FF30009000208DF8040000208DF848
:104C1000050000208DF8060000208DF80800032014
:104C20008DF844000120129001208DF807000F4CF0
:104C30000F4D69462078C0012844FFF7C5FA207857
:104C4000C0012844FFF780FB00212078C0012844E0
:104C5000FFF77FFB2078C0012844FCF788FD15B0E2
:104C600030BD00001C690810000004405B070228EA
:104C700000005940B03CFFFF58070228022801D32A
:104C800001200FE00B00DBB2042B01DB012009E067
:104C9000924B03EB8000C9B2405C824201D30120F9
:104CA00000E000207047F8B506000F0015001C005A
:104CB000022E01D301201CE02A003900C9B23000C5
:104CC000FFF7DCFF012801D1012012E03800C0B25B
:104CD000002811D1B4F5807F0CD28148760330448E
:104CE00000EB850010F58050016864F30F2101602E
:104CF0000020F2BD0120FCE7FFB2012F10D1B4F576
:104D0000803F0BD276487603304400EB850010F5E7
:104D1000A050016864F317210160E9E70120E8E78A
:104D20000120E6E700B20012C0B27047F8B50500F6
:104D30000E001700280000B2FFF7F4FF0400200067
:104D4000C0B2022801D3012023E03A003100C9B2E9
:104D50002000C0B2FFF792FF012801D1012018E026
:104D60005F492000C0B2400308442A00D2B200EBE1
:104D70008200D0F8000CF6B266F3092067F3070052
:104D8000E4B264032144EDB201EB8501C1F8000CEB
:104D90000020F2BD70B504000D001600022C01D3F6
:104DA00001201CE032002900C9B22000FFF766FF95
:104DB000012801D1012012E049496003085850F050
:104DC000004050F0407050F47F00EDB265F30920D0
:104DD00066F307006203885064030859002070BD21
:104DE00080B54049C0B2C0010844FFF7BCFA01BD1C
:104DF00070B596B004000D005021002202AE3000C4
:104E0000FCF774FA002201212000C0B200F27110F8
:104E100000B2FFF78BFF2000C0B200F2711000B2A9
:104E2000FFF780FF092300220121C0B2FFF73BFFFB
:104E30002000C0B200F2711000B2FFF773FF002231
:104E40000121C0B2FFF7A6FF2000C0B210F5D57057
:104E5000ADF800000220ADF8020001208DF804003A
:104E6000032221482100C9B250F821106846FDF7FD
:104E70003DFCED00029500208DF80C0000208DF81F
:104E80000D0000208DF80E0000208DF8100003208A
:104E90008DF84C000120149000208DF85400002063
:104EA0008DF855000F4D02A92000C0B2C001284462
:104EB000FFF78AF92000C0B2C0012844FFF744FA86
:104EC0002000C0B2C0012844FCF751FCE4B2E40168
:104ED00005EB0400FFF741FA16B070BD1C6908101D
:104EE00000000440000059401807022838B50400AB
:104EF0000025642044431420FFF774FA002805D1EC
:104F00000A20FFF701FE6D1CA542F4D3A54201D390
:104F1000012000E00020C0B232BD38B504000D0011
:104F200000211320FFF73CFA042322002100002077
:104F3000FFF7CAFC280080B2002806D0ADB22B00D3
:104F4000221D211D0020FFF7BFFC01211320FFF7C8
:104F500027FA31BDF8B504000D001600002113201A
:104F6000FFF71EFA022028706E8004232A00290011
:104F70000020FFF7A9FC300080B221280EDB20239F
:104F80002A1D21000020FFF79FFCB6B2203E320010
:104F900014F120010020FFF736FC0CE0B6B22F1D03
:104FA000320021003800FEF7DBF820232A1D291DDE
:104FB0000020FFF789FC01211320FFF7F1F9F1BD73
:104FC000F0B589B006000C00534D2878002858D160
:104FD000012028701CE03A0092B269463000FFF7C9
:104FE000B9FF9DF80000902803D09DF8000091289B
:104FF00009D1BDF80200002805D0BDF8022001A9A2
:105000004648FDF77AF8380080B2241ABFB23E4411
:10501000002C2AD040F6F970844202D340F6F8778B
:1050200000E027004FF47A70FFF760FF0028D2D02D
:105030001BE002208DF800000020ADF802002021C6
:105040006846FFF76AFF9DF80000902803D09DF89E
:105050000000912809D1BDF80200002805D0BDF854
:10506000022001A92D48FDF748F89DF8000090287E
:1050700005D14FF47A70FFF739FF0028D9D000200E
:105080002870200009B0F0BD38B58AB004000D00CA
:10509000002C01D0012000E0002040F22522204910
:1050A000C0B2FCF7A2F800951B4D287800282AD141
:1050B000012028704FF47A70FFF718FF002820D1E4
:1050C00002208DF804000020ADF80600202101A880
:1050D000FFF723FF9DF80400902803D09DF80400FB
:1050E000912809D1BDF80600002805D0BDF806209A
:1050F00002A90A48FDF701F89DF804009028D9D0CC
:10510000FFE70020287000236A4621000348FDF7CE
:10511000C4F800980BB030BD640D0228CC0C0228F6
:105120008065081038B500F077F900F042F800F01B
:10513000C9F871490868800312D4BFF34F8FBFF3D9
:105140006F8F00206D4A1060BFF34F8FBFF36F8FDA
:10515000086850F400300860BFF34F8FBFF36F8FC3
:105160000868C00324D40020654A1060BFF34F8F45
:1051700064480268C2F34E33C2F3C90443F6E070D8
:1051800010EA431050EA84705F4D28602000441EEE
:105190000028F3D11800431E0028EDD1BFF34F8F34
:1051A000086850F480300860BFF34F8FBFF36F8FF3
:1051B00031BD70B586B0684654491822FDF7E0FF4E
:1051C00000200AE069460200D2B201EBC201496840
:1051D000491C11F0070F0DD1401C0100C9B2032971
:1051E00009D269460200D2B211F8321011F0070F4D
:1051F000E8D0FEE7FEE7464C207810F0070F00D01D
:10520000FEE7444D2868401C10F0070F00D0FEE771
:10521000002622E068463100C9B200EBC1004168B7
:105220003000C0B252F8300000F043F814E0002023
:105230000028EFD02168491E3000C0B252F830007B
:1052400000F037F868463100C9B200EBC100416890
:105250002868401C00F02DF8761C3000C0B20328EE
:1052600025D26A463000C0B252F83000002813D070
:1052700020683100C9B252F8311088420AD368461A
:105280003100C9B200EBC10040682168884201D3F7
:105290000120CDE70020CBE768463100C9B200EB22
:1052A000C100406821688842C1D30120C0E706B030
:1052B00070BD0022002302E0C0E9002308308842CC
:1052C000FAD3704730B4144880081449144A0023B4
:1052D00008E01C00E4B252F824401D00EDB241F891
:1052E00025405B1C1C000500E4B2EDB2AC42F0D3DB
:1052F0000C48016030BC704714ED00E050EF00E056
:1053000084ED00E080ED00E060EF00E04868081008
:10531000E8620810EC62081080000000800D02288E
:105320000000081008ED00E010B5002042490860B8
:10533000BFF34F8F41480168C1F34E32C1F3C90337
:1053400043F6E07010EA421050EA83703C4C206053
:105350001800431E0028F3D11000421E0028EDD192
:10536000BFF34F8FBFF36F8FBFF34F8FBFF36F8FBD
:10537000002034490860BFF34F8FBFF36F8F00F0F8
:1053800001F810BD38B586B068462F491822FDF7E0
:10539000F7FE6846FEF7B8F9C0B200280DD02B4CD6
:1053A00018222B492000FEF77BFC0020E0754E20E0
:1053B000284908600020FEF7ABFC274D2800FEF7C7
:1053C00045FCC0B200280DD0204C182220492000F6
:1053D000FEF766FC0020E07550201E4908600020A2
:1053E000FEF796FC1D49286808600A681C48821868
:1053F0001C48B2FBF0F01C4A10601C48096801F21E
:10540000E7314FF47A72B1FBF2F101600068C0033A
:105410001749086007B030BD80B500F02DF8154978
:105420000A6852F470020A60BFF34F8FBFF36F8FA8
:1054300000F026F801BD000084ED00E080ED00E002
:1054400074EF00E050EF00E060680810540C022890
:1054500024640810280D0228300D0228340D02287B
:105460003F420F0040420F003C0D0228380D022839
:10547000400D022888ED00E0EFF3108072B670470F
:1054800080F3108870470000FEB504000D0001266F
:105490000821002201AF3800FBF728FF0820009008
:1054A0000120FFF75CFB0820009001236A4601A958
:1054B000DFF85000FCF7C1FF210001A800F0CAF896
:1054C000002812D1DFF8401001A800F0C3F800282E
:1054D0000DD1DFF8601101A800F0BCF8002806D15A
:1054E0002800451E0028DBD102E0002600E001264E
:1054F0003000C0B2FEBD80B5DFF80800FCF7B2FD99
:1055000001BD0000E40C0228246908102DE9F041D7
:1055100088B004000D00002C01D0012000E0002024
:1055200040F2BB32DFF81C11C0B2FBF75EFE42F264
:105530001076370020210022E8464046FBF7D6FED1
:10554000DFF8FC8098F89300012852D198F8910078
:1055500000283FD1FFF7CFFF2900684600F090F800
:1055600042F20100854205D3DFF8DC100120FCF790
:1055700003FB04E0DFF8D4100120FCF7FDFA98F8F3
:105580009200012803D12CA10120FCF7F5FA69460D
:105590000120FCF7F1FA29A10120FCF7EDFA18A788
:1055A00031003800FFF770FF002822D1FFF7A3FF7A
:1055B0002A0021000120FCF7D0FA31003800FFF763
:1055C00063FF002815D1002513E021780120FCF7A6
:1055D000B0FA641C2800451E00280AD0B620FEF749
:1055E00001FF002803D03800471E0128F6DA012FFA
:1055F000EBDAFFF780FF280008B0BDE8F08100007B
:105600004F4B000038B504000D00002C01D00120E4
:1056100000E000204FF486620A49C0B2FBF7E5FDC6
:10562000009500236A4621000948FCF736FE0098E1
:1056300032BD00002C690810302C00000D0A00005B
:1056400074080228C0650810DC6808100469081096
:10565000E40C022870B50D462C7834B970BD11F8F1
:10566000013F1678B34206D0401C2146FDF73EFEAE
:1056700028B101462A4612F8013F002BEFD170BD38
:1056800038B584B005000C00002D01D0012000E0E9
:1056900000209F22DFF87010C0B2FBF7A6FD0020AB
:1056A0000021002D2DD0002C04D52D2129706D1C3A
:1056B000644206E0002C04D13020287021E04942E9
:1056C0000AE0002C19D00A2194FBF1F201FB1241EF
:1056D0000200501C0029F2D46B46D2B299540A2120
:1056E00094FBF1F4EDE769460200D2B2114411F8DF
:1056F000011C303129706D1C401E0100C9B2002907
:10570000F1D105B030BD000040650810D0F8C80FD9
:105710007047C0F8C01FD0F8C00F7047D0F8880F8E
:105720007047C0F8801FD0F8800F704780B5002008
:10573000FFF756FB01205849087001BD80B50120D4
:10574000FFF74EFB01205549087001BD80B50220CE
:10575000FFF746FB01BD80B50020FCF7C8F9FFF755
:10576000D5FF400708D50020FCF7C1F90421FFF759
:10577000D0FFFBF721FD0DE00020FCF7B8F9FFF7A3
:10578000CDFF800506D50020FCF7B1F94FF400717C
:10579000FFF7C7FF01BD80B50120FCF7A8F9FFF7AF
:1057A000B5FF400709D50120FCF7A1F90421FFF757
:1057B000B0FF3B48006880470DE00120FCF797F9F7
:1057C000FFF7ACFF800506D50120FCF790F94FF4F8
:1057D0000071FFF7A6FF01BD80B50220FCF787F935
:1057E000FFF794FF400708D50220FCF780F9042159
:1057F000FFF78FFF00F058F80DE00220FCF777F973
:10580000FFF78CFF800506D50220FCF770F94FF4F6
:105810000071FFF786FF01BD80B50320FCF767F933
:10582000FFF774FF400706D50320FCF760F9042159
:10583000FFF76FFF0DE00320FCF759F9FFF76EFF4C
:10584000800506D50320FCF752F94FF40071FFF7ED
:1058500068FF01BD80B50420FCF749F9FFF756FF4A
:10586000400709D50420FCF742F90421FFF751FF56
:105870000C48006880470DE00420FCF738F9FFF77A
:105880004DFF800506D50420FCF731F94FF4007177
:10589000FFF747FF01BD0000590D02285A0D0228ED
:1058A000F8060228FC0602281FB500200190404897
:1058B0000078002868D004E0012269463D48FCF7E2
:1058C0001CFC69460220FCF765F90028F4D19DF81C
:1058D00000000A2858D106200190364C012301AA65
:1058E00002A92000FCF7D9FC032228A10DF10B002E
:1058F00000F064F8002810D12748017802293DD033
:10590000012101702000FCF7E7FB0190002301AAB0
:1059100022492000FCF7C1FC30E003221CA10DF15C
:105920000B0000F04BF8002810D11D480178022927
:1059300024D0012101702000FCF7CEFB0190002350
:1059400001AA18492000FCF7A8FC17E0032211A1C6
:105950000DF10B0000F032F800280FD11248017849
:1059600002290BD0012101702000FCF7B5FB01904A
:10597000002301AA0D492000FCF78FFC2000FCF752
:1059800071FB01200C4908701FBD0000524D4300FF
:105990004747410054485300610D022888090228F6
:1059A000600D022808090228620D0228080A022850
:1059B0005F0D0228B40C02285E0D02288AB10B7814
:1059C00090F800C09C4506D110F8013B4BB1491C32
:1059D000521EF4D105E002D24FF0FF307047012093
:1059E0007047002070470000010009B2002908D468
:1059F000012210F01F018A404F4900B2400941F8CE
:105A000020207047FEE780B54C4800684C4801688C
:105A10000800C00F002805D04A488905890D50F8B4
:105A2000210080470020FFF7DFFF01BD80B5464819
:105A30000068464801680800C00F002805D04148AA
:105A40008905890D50F8210080470120FFF7CCFF20
:105A500001BD80B53E4800683E4801680800C00F9F
:105A6000002805D037488905890D50F82100804766
:105A70000220FFF7B9FF01BD80B5374800683748FD
:105A800001680800C00F002805D02E488905890D3F
:105A900050F8210080470320FFF7A6FF01BD80B525
:105AA0002F4800682F4801680800C00F002805D063
:105AB00024488905890D50F8210080470420FFF70C
:105AC00093FF01BD80B52848006828480168080098
:105AD000C00F002805D01B488905890D50F821000A
