:020000041028C2
:1000000000000C2821762810717F2810097D281007
:10001000757F2810797F28107D7F28100000000050
:10002000000000000000000000000000B57D281066
:10003000817F281000000000857F2810897F28100C
:100040000F6E2810356E28105B6E2810816E2810F8
:10005000A76E2810CD6E2810F36E2810196F281087
:100060008D7F2810917F2810957F2810997F281068
:100070009D7F2810A17F2810A57F2810A97F281018
:10008000D0F80803C005C00D704710F541710A682B
:1000900052F480320A6010F541710A6832F48032FD
:1000A0000A60D0F804037047C0F840127047D0F8D7
:1000B0000802C005C00D7047D0F80802C0F3C03078
:1000C000704738B505002800FFF7F1FF040028004D
:1000D000FFF7F2FF0419002C01D1012000E00020FD
:1000E000C0B232BD0068C0F38130002801D1802049
:1000F00000E040207047016851F000410160704706
:100100002030026861F39B620260704780B5FFF7A0
:10011000B7FF02BD80B5FFF7B8FF01BD022801D3CC
:10012000012010E00B00DBB2042B01DB01200AE010
:10013000DFF8B43603EB8000C9B2405C824201D3E1
:10014000012000E000207047F8B504000F00150002
:100150001E00022C01D301202AE02A003900C9B276
:100160002000FFF7DBFF012801D1012020E00698E5
:100170003900C9B202291ED1B6F5803F19D2202814
:1001800017D24FF4C052DFF8641663030B4403EB3D
:10019000850313441F6866F317271F606403214417
:1001A00001EB850111440A6860F3C7020A60002070
:1001B000F2BD0120FCE7FFB2032F1FD1B6F1807F13
:1001C0001AD2202818D24FF4E052DFF82016630329
:1001D0000B4403EB850313441F6807F0FF0757EA3E
:1001E00006271F606403214401EB850111440A685E
:1001F00060F3C7020A60DAE70120D9E70120D7E7F8
:1002000000B20012C0B27047F8B505000E0017002A
:10021000280000B2FFF7F4FF04002000C0B202285B
:1002200001D3012024E03A003100C9B22000C0B25D
:10023000FFF774FF012801D1012019E0DFF8AC15A8
:100240002000C0B2400308442A00D2B200EB820072
:10025000D0F8000CF6B266F3092067F30700E4B2A9
:1002600064032144EDB201EB8501C1F8000C0020CC
:10027000F2BD70B504000D001600022C01D3012060
:100280001DE032002900C9B22000FFF747FF012816
:1002900001D1012013E0DFF854156003085850F035
:1002A000004050F0407050F47F00EDB265F309203B
:1002B00066F307006203885064030859002070BD8C
:1002C0000100C020C9B2002903D0022905D002D301
:1002D00004E0122002E0622000E07A20C0B2704701
:1002E0000100C020C9B2002903D0022905D002D3E1
:1002F00004E0112002E0612000E07920C0B27047E4
:100300000100C020C9B2002903D0022905D002D3C0
:1003100004E0102002E0602000E07820C0B27047C6
:100320000100C020C9B2002908D002290AD007D391
:1003300004290BD008D305290AD00AE0132008E0CD
:10034000142006E0632004E0642002E07B2000E04B
:100350002920C0B2704701000020C9B2002903D093
:10036000022905D002D304E0132002E0132000E0AC
:100370001320C0B2704701000020C9B2002903D089
:10038000022905D002D304E0132002E0132000E08C
:100390001320C0B2704701000020C9B2002903D069
:1003A000022905D002D304E0132002E0132000E06C
:1003B0001320C0B2704701000020C9B2002908D044
:1003C00002290AD007D304290BD008D305290AD063
:1003D0000AE0132008E0132006E0132004E01320B5
:1003E00002E0132000E01320C0B27047C9B2082910
:1003F00002D0102946D096E0DFF8F4130200D2B202
:1004000051F82220126832F440420300DBB251F866
:1004100023301A600200D2B251F82220D2F8002212
:10042000520952010300DBB251F82330C3F8002215
:100430000200D2B251F82220D2F8002252F0070274
:100440000300DBB251F82330C3F800220200D2B21D
:1004500051F82220D2F80023520952010300DBB2E6
:1004600051F82330C3F800230200D2B251F8222001
:10047000D2F8002352F00702C0B251F82000C0F8B1
:10048000002350E0DFF868130200D2B251F82220B6
:10049000126832F440420300DBB251F823301A6094
:1004A0000200D2B251F82220126852F480420300B6
:1004B000DBB251F823301A600200D2B251F8222088
:1004C000D2F80022520952010300DBB251F8233066
:1004D000C3F800220200D2B251F82220D2F8002242
:1004E00052F00F020300DBB251F82330C3F80022B0
:1004F0000200D2B251F82220D2F800235209520150
:100500000300DBB251F82330C3F800230200D2B25B
:1005100051F82220D2F8002352F00F02C0B251F855
:100520002000C0F800237047F8B504000E00082131
:100530002000C0B2FFF75AFFDFF8B8522000C0B267
:10054000285C06280FD02000C0B2285CC010DFF85D
:10055000A81211EBC01101202200D2B2AA5C12F045
:10056000070290400860DFF88872F6B23100200080
:10057000C0B257F82000FFF797FD2000C0B257F82F
:100580002000FFF7AFFD06002000C0B257F82000A2
:10059000FFF78DFD8642F0D02000C0B257F8200052
:1005A000FFF78FFD0028F7D02000C0B2285C062896
:1005B0000ED02000C0B2285CC010DFF80C1311EB85
:1005C000C0110120E4B22A5D12F0070290400860D9
:1005D000F1BD2DE9F84307000D0014000821380093
:1005E000C0B2FFF703FFDFF80C623800C0B2305C26
:1005F00006280FD03800C0B2305CC010DFF8F81108
:1006000011EBC01101203A00D2B2B25C12F0070225
:1006100090400860DFF8D88129783800C0B258F8D7
:100620002000FFF741FD6D1C3800C0B258F82000D3
:10063000FFF758FD81463800C0B258F82000FFF798
:1006400036FD8145F0D0641E002CE3D13800C0B2E5
:1006500058F82000FFF735FD0028F7D03800C0B269
:10066000305C06280ED03800C0B2305CC010DFF815
:10067000581211EBC0110120FFB2F25D12F0070217
:1006800090400860BDE8F183F8B504000E00102129
:100690002000C0B2FFF7AAFEDFF858512000C0B218
:1006A000285C06280FD02000C0B2285CC010DFF8FC
:1006B000481111EBC01101202200D2B2AA5C12F045
:1006C000070290400860DFF82871B6B231002000C0
:1006D000C0B257F82000FFF7E7FC2000C0B257F87F
:1006E0002000FFF7FFFC06002000C0B257F82000F2
:1006F000FFF7DDFC8642F0D02000C0B257F82000A2
:10070000FFF7DFFC0028F7D02000C0B2285C0628E5
:100710000ED02000C0B2285CC010DFF8AC1111EB85
:10072000C0110120E4B22A5D12F007029040086077
:10073000F1BD2DE9F84307000D0014001021380029
:10074000C0B2FFF753FEDFF8AC603800C0B2305CD7
:1007500006280FD03800C0B2305CC010DFF8981007
:1007600011EBC01101203A00D2B2B25C12F00702C4
:1007700090400860DFF8788029883800C0B258F8C7
:100780002000FFF791FCAD1C3800C0B258F82000E3
:10079000FFF7A8FC81463800C0B258F82000FFF7E8
:1007A00086FC8145F0D0641E002CE3D13800C0B235
:1007B00058F82000FFF785FC0028F7D03800C0B2B9
:1007C000305C06280ED03800C0B2305CC010DFF8B4
:1007D000F81011EBC0110120FFB2F25D12F0070218
:1007E00090400860BDE8F183D07E281000000440EE
:1007F0001007082848180928040031402DE9F8435B
:1008000080460D0016001C0008214046C0B2FFF7CC
:10081000EDFDDFF81C734046C0B2385C06280FD0EF
:100820004046C0B2385CC010DFF8081311EBC011AD
:1008300001204246D2B2BA5C12F007029040086032
:10084000DFF8F4924046C0B259F82000FFF762FC8E
:1008500029784046C0B259F82000FFF725FC6D1CEE
:100860004046C0B259F82000FFF72BFC0028F7D013
:100870004046C0B259F82000FFF748FC0028F7D0E6
:100880004046C0B259F82000D0F840033070761CC2
:10089000641E002CDCD14046C0B2385C06280FD064
:1008A0004046C0B2385CC010074911EBC0110120AE
:1008B0005FFA88F817F8082012F0070290400860E5
:1008C000BDE8F18300000000080031402DE9F04F41
:1008D0009DB004000D001E009200002397480021E7
:1008E00000F032F90700342100220DF104084046DF
:1008F00000F042FA3C2100220DF13808404600F099
:100900003BFA20003100C0B2C9B2884201D10120B7
:1009100000E00020DDF89890DFF824A240F2863253
:100920005146C0B200F03AFC30004946C0B2C9B2EC
:10093000884201D1012000E00020DDF89C8040F2D7
:1009400087325146C0B200F029FC0620029048468A
:10095000C0B2FFF710FD8DF80C004846C0B2FFF79B
:10096000BFFC82465FF0080B4846C0B2FFF7B8FCF8
:10097000DFF8D09101AA9AFBFBF10BFB11AA5146BB
:10098000C0B2C010C001484400F013FD0620029020
:100990003000C0B2FFF7DFFC8DF80C003000C0B2B1
:1009A000FFF78EFC82465FF0080B3000C0B2FFF705
:1009B00087FC01AA9AFBFBF10BFB11AA5146C0B2BE
:1009C000C010C001484400F0F4FC4046C0B2032807
:1009D0001ED0082002904046C0B2FFF7DCFC8DF824
:1009E0000C004046C0B2FFF78BFC06005FF0080A1F
:1009F0004046C0B2FFF784FC01AA96FBFAF10AFB5D
:100A000011663100C0B2C010C001484400F0D1FCF2
:100A1000289E3000C0B206281ED00620029030006A
:100A2000C0B2FFF7C8FC8DF80C003000C0B2FFF771
:100A300077FC80465FF0080A3000C0B2FFF770FC18
:100A400001AA98FBFAF10AFB11884146C0B2C01016
:100A5000C001484400F0ADFC2200D2B2121D0321B7
:100A60002000C0B200F21F1000B2FFF7CDFB200043
:100A7000C0B200F21F1000B2FFF7C2FB17F01F0157
:100A80000091C7F357132200D2B2121D0321C0B246
:100A9000FFF75AFB2000C0B200F21F1000B2FFF7B0
:100AA000AFFB2200D2B2121D0321C0B2FFF7E1FB5F
:100AB000EDB2002D05D0022D09D005D3032D09D0AC
:100AC0000AE00020109007E00120109004E00220CE
:100AD000109001E00320109001200E9000200F9054
:100AE00004201190082012900820139001208DF806
:100AF000500001208DF853000F4D00220EA9200058
:100B0000C0B255F8200000F093FC00212000C0B2D4
:100B100055F82000FFF7F4FA2000C0B255F8200085
:100B2000FFF7E9FA0248E4B206551DB0BDE8F08FC0
:100B300048180928040031401007082800809698BA
:100B4000047C281000003140BBBBE1B1B2F5803F0E
:100B500080F07E80022A1ED98C46B1FBF2F102FBA6
:100B600011C31B0443EA1043B3FBF2FC02FB1C332A
:100B700080B240EA0343B3FBF2F002FB103240EADA
:100B80000C4000237047022A05D98446B0FBF2F0DE
:100B900002FB10C270474AB105D100F001024908BA
:100BA0005FEA3000704700220023704700F038BD34
:100BB0000B000200002100207047904271EB030CF3
:100BC000F6D3B3F5803F2FD2F0B5B3FA83F7B1FA7D
:100BD00081F4A7F10F0E3D1B5340CEF1200602FA1F
:100BE0000EF2F3415340B5F10F0746D80F3C2C44A9
:100BF0004140C4F12006A040F1414140B1FBF3F671
:100C000003FB1611A2FB0645001BA94102D2761E6A
:100C10008018594180EA010221FA0EF362FA0EF2BD
:100C200000215A403046F0BD30B4B1FBF3FC03FB69
:100C30001C11A2FB0C45001BA94103D2ACF1010C15
:100C40008018594130BC02460B466046002170476F
:100C5000B2F1807F65D3F0B5B2FA82F7B1FA81F4D0
:100C6000C7F10F063D1B22FA06F307F1110EF24100
:100C700020355A40B5F10F07B8D94140C4F12006DC
:100C8000A040F1414140B1FBF3FC03FB1C11A2FB6E
:100C90000C45001BA94103D2BCF1010C801859413D
:100CA0000F2F12D30F3FC90341EA5041B1FBF3F6B6
:100CB00003FB1611A2FB0645D4EBC030A94102D2BA
:100CC000761E8018594146EACC3C07B34140C7F133
:100CD0002006B840F1414140B1FBF3F603FB161189
:100CE000A2FB0645001BA94102D2761E801859417D
:100CF00080EA010221FA0EF3C7F1200462FA0EF233
:100D00000CFA07F05A402CFA04F13043F0BD80EAA7
:100D1000010221FA0EF3002162FA0EF260465A40F7
:100D2000F0BD8C46B1FBF2F102FB11C31B0243EA9A
:100D30001063B3FBF2FC02FB1C331B024CEA0020E5
:100D400043EA1063B3FBF2FC02FB1C331B024CEAC8
:100D5000002043EA1063B3FBF2FC02FB1C331B02CE
:100D60004CEA002043EA1063B3FBF2FC02FB1C32A6
:100D70004CEA00200023704762F30F2262F31F4207
:100D8000401810F0030308D0C91A1FD3DB0748BF6F
:100D900000F8012D28BF20F8022D130030B41446AE
:100DA0001546103928BF20E93C00FAD8490728BF6A
:100DB00020E90C0048BF40F8042D890028BF20F826
:100DC000022D48BF00F8012D30BC7047C91818BF6C
:100DD00000F8012DCB0728BF00F8012D7047F0B4B3
:100DE0000246106895681318506803EB5004C0075A
:100DF00048BF4D44A3422DD013F8016B16F00300F9
:100E000004BF13F8010BC01C31090F2907D113F8D7
:100E1000011B0F3103E013F8017B05F8017B401E35
:100E2000F9D10029E6D013F8010BC6F38106032E91
:100E300008BF13F8016B00EB06204042284400264F
:100E4000B71E8F421EBF10F8017B05F8017B761C90
:100E5000F6D1CFE7F0BC02F10C00704782B0002061
:100E60000190002000900020019009E00098401CB3
:100E700000900098B0F5005FF8D30198401C0190F5
:100E80000198B0F5805F02D200200090F1E702B037
:100E9000704780B50100002000F0BCFD01BD2DE9C8
:100EA000F043ADF5137D0700884616001C000020B6
:100EB000ADF802000020ADF80000002002900020F4
:100EC000ADF804000020ADF80600404600F0C2FF77
:100ED0000290DFF890532888002801D028698047C5
:100EE000DFF884030078002800F033812888002888
:100EF00000F01181BDF90600411CADF806103A0062
:100F0000010089B20020EB6898474746404600F050
:100F1000A1FF02906888A97990FBF1F0ADF8040078
:100F20003800471C00780028FAD10020ADF80000F6
:100F30000EE07F1E38782F2802D038785C2804D144
:100F4000BDF80000401CADF800000298401E029061
:100F5000BDF80000022802DA02980028E9D50298BC
:100F6000002806D47A1CDFF8041353A800F08EFF83
:100F70000EE0BDF80000002805D13A00BC4953A896
:100F800000F084FF04E03A00B84953A800F07EFF67
:100F90000020ADF8020042E0BDF80010BDF80020CE
:100FA000BDF8023053AF9BB2BDF90400434313FABE
:100FB00082F0385C43AA89B25054BDF80000401C4E
:100FC000ADF80000BDF8000080B2BDF90410884201
:100FD0000EDA53A800F03EFFBDF80020BDF8023045
:100FE0009BB2BDF904104B4313FA82F18842D3D26D
:100FF000002043A9BDF800208854BDF90600411C1B
:10100000ADF8061043AAE97911FB00F189B200207E
:10101000EB689847BDF80200401CADF80200BDF82F
:10102000027053A800F016FFBDF90410B0FBF1F0F8
:10103000401CBFB2874203D20020ADF80000C1E7D8
:1010400032008C4953A800F021FFBDF90600411C75
:10105000ADF8061053AAE97911FB00F189B200201E
:10106000EB689847002C74D00020ADF8020041E0F6
:10107000BDF80010BDF80020BDF802309BB2BDF9EC
:101080000400434313FA82F0205C43AA89B250540F
:10109000BDF80000401CADF80000BDF8000080B2B3
:1010A000BDF9041088420EDA200000F0D3FEBDF82E
:1010B0000020BDF802309BB2BDF904104B4313FA77
:1010C00082F18842D4D2002043A9BDF80020885480
:1010D000BDF90600411CADF8061043AAE97911FBE1
:1010E00000F189B20020EB689847BDF80200401C6F
:1010F000ADF80200BDF80260200000F0ABFEBDF9C3
:101100000410B0FBF1F0401CB6B2864221D20020A0
:10111000ADF80000C1E74FF4807100220DF10C0919
:101120004846FFF729FE3800A9688847002C07D0F9
:10113000009433004246504903A800F0A7FE05E0A2
:10114000330042464D4903A800F0A0FE03A8A96859
:1011500088470DF5137DBDE8F08380B50A000100D6
:10116000002000F048FC002002BD02B50100002371
:101170006A46434800F0DFFF009802BD10B53A48C8
:101180000078002809D03F4C2100002000F050FCDE
:10119000012221003A4800F0FEFE10BD38B50C00D7
:1011A0001500C0B2002803D137480078002800D1CC
:1011B00031BD36490878002800D0FEE70878401C89
:1011C000087001F0D5F900232A0021003048FFF70C
:1011D00066FEFFF743FEF6E7002101804FF6FF7140
:1011E00041808180FF218171C171002181600021D6
:1011F000C1600021016170471A4902880A80428853
:101200004A8082888A8082798A71C279CA718268AA
:101210008A60C268CA6000690861012012490870CA
:10122000704700B585B06846FFF7D6FF19480290B1
:101230006846FFF7E1FF05B000BD80B5FFF7F1FF9D
:10124000002300225FF4E131002000F017FD40236D
:10125000114A00210A4801F021F90121002000F083
:101260008EFC01BD0018092864180928947E2810F6
:10127000647E2810A07E2810987D28101C7E2810DF
:1012800070170928651809284F07082866180928C3
:10129000747E2810930E2810E016092830B4614B94
:1012A0001818C009604C14EB001404290DD22368EF
:1012B0001F25C8008540AB43D2B212F01F02C900FF
:1012C00012FA01F1194321600CE0091F63681F2520
:1012D000C8008540AB43D2B212F01F02C9008A4059
:1012E0001A43626030BC7047002A04D1012212FA0E
:1012F00001F1416003E0012212FA01F181607047BF
:1013000010B48900436C0F248C40A34312F00F02E9
:1013100012FA01F11943416410BC704710B4836C98
:1013200001248C40A34312F0010212FA01F1194387
:10133000816410BC704710B4C36C01248C40A3437B
:1013400012F0010212FA01F11943C16410BC704796
:1013500010B449001031C36C03248C40A34312F035
:10136000030212FA01F11943C16410BC70474269CB
:10137000012212FA01F141614069704710B483699A
:1013800001248C40A34312F0010212FA01F1194327
:10139000816110BC704710B44900036C03248C4079
:1013A000A34312F0030212FA01F11943016410BCC5
:1013B0007047F8B505000E0014000027002D2ED050
:1013C000002C2CD0226831002800FFF78DFF227AF4
:1013D00031002800FFF762FF626931002800FFF743
:1013E0009DFFA26931002800FFF7A5FFE2693100E7
:1013F0002800FFF7ADFF626831002800FFF780FF8B
:10140000E26831002800FFF7C6FF31002800FFF72F
:10141000AEFF226931002800FFF7B0FF00E0034F64
:101420003800F2BD0000CFBF0000304001005A007C
:101430002DE9F041DFF8D0311C00DFF8D051D5F8AC
:1014400000C0DFF8CC512D68DFF8C8613668DFF8DE
:10145000C8713F685FF0000E5FF0000E002800F0DA
:10146000D080002900F0CD804C68002C01D18C6820
:1014700005E04C68022C01D1002400E00224D1F8E0
:1014800010E0D1F81480C64502D3D1F810E001E095
:10149000D1F814E0BEF1090F08D23CF4404C91F8A9
:1014A0002130002B12D05CF4807C11E0BEF1110FD2
:1014B00003D2012363F38F3CF1E7BEF1210F03D286
:1014C000022363F38F3CEAE718009BE03CF4807C46
:1014D000CB685B1E13F00F035FEA1C1C5FEA0C1C59
:1014E00053EA0C0C012363F3196CC0F800C00B7FA6
:1014F000002B01D0002300E0012363F300054B68BB
:101500001B0963F34105CB7E63F304154B7E63F344
:1015100045150B68012B01D1012300E0002363F383
:10152000DF7523005B0863F3820564F3C3054B7F1B
:1015300063F308258B7F63F34925CB7F63F38A250B
:1015400091F8203063F3CB250B7913F0030363F399
:10155000196505620B7E63F308278B7E63F34927C9
:101560000B695B1E13F01F037F097F011F43C0F847
:10157000007391F8243003F0FF0310F541742568DF
:101580002D0A2D022B4323600B7E63F308264B6943
:101590005B1E13F01F03760976011E43C0F800623C
:1015A00091F82C3003F0FF0310F5017425682D0A23
:1015B0002D022B4323600B6BC0F8883F8B6AC0F869
:1015C000C83F91F8383010F57064256863F34925F9
:1015D000256091F8391010F574631C6861F3CB2411
:1015E0001C600021C0F8C81E002A09D0002010602D
:1015F000002090610020D0600020D0610748106278
:1016000000242000BDE8F0810140AA00147F2810CA
:10161000187F28101C7F2810207F2810EFCDAB00EA
:1016200070470268531C036011707047022801D391
:10163000012010E00B00DBB2042B01DB01200AE0EB
:10164000DFF8CC3703EB8000C9B2405C824201D3A3
:10165000012000E000207047F8B504000F001500DD
:101660001E00022C01D301202AE02A003900C9B251
:101670002000FFF7DBFF012801D1012020E00698C0
:101680003900C9B202291ED1B6F5803F19D22028EF
:1016900017D24FF4C052DFF87C1763030B4403EBFF
:1016A000850313441F6866F317271F6064032144F2
:1016B00001EB850111440A6860F3C7020A6000204B
:1016C000F2BD0120FCE7FFB2032F1FD1B6F1807FEE
:1016D0001AD2202818D24FF4E052DFF838176303EB
:1016E0000B4403EB850313441F6807F0FF0757EA19
:1016F00006271F606403214401EB850111440A6839
:1017000060F3C7020A60DAE70120D9E70120D7E7D2
:1017100000B20012C0B27047F8B505000E00170005
:10172000280000B2FFF7F4FF04002000C0B2022836
:1017300001D3012024E03A003100C9B22000C0B238
:10174000FFF774FF012801D1012019E0DFF8C4166A
:101750002000C0B2400308442A00D2B200EB82004D
:10176000D0F8000CF6B266F3092067F30700E4B284
:1017700064032144EDB201EB8501C1F8000C0020A7
:10178000F2BD70B504000D001600022C01D301203B
:101790001DE032002900C9B22000FFF747FF0128F1
:1017A00001D1012013E0DFF86C166003085850F0F7
:1017B000004050F0407050F47F00EDB265F3092016
:1017C00066F307006203885064030859002070BD67
:1017D000D0F840037047D0F80803C005C00D70472B
:1017E000C0F840127047D0F80802C005C00D70471D
:1017F000D0F80802C0F3C030704738B505002800A3
:10180000FFF7F1FF04002800FFF7F2FF0419002C96
:1018100001D1012000E00020C0B232BDC0F8C81FD5
:101820007047D0F8C80F7047C0F8881F7047D0F8CD
:10183000880F7047016851F000410160704738B56A
:1018400004001500C9B2002906D002291ED010D309
:10185000042935D027D340E0DFF8BC05A060012083
:101860002073112060734FF48C70E081122020826D
:1018700039E0DFF8A805A060012020731120607313
:1018800040F21D10E0816B2020822CE0DFF89005F3
:10189000A06001202073112060734FF48E70E081EE
:1018A0006A2020821FE0DFF87C05A0600220207300
:1018B0001120607340F21B10E0816920208212E049
:1018C000DFF86405A06001202073132060734FF4DB
:1018D0008D70E0816820208205E07C22DFF84C15C5
:1018E0000020FFF75BFCEDB2002D06D0022D1ED0CC
:1018F00010D3042D35D027D340E0DFF81C0520603D
:1019000000202071112060714FF48C70E081122052
:10191000208239E0DFF804052060002020711120CA
:10192000607140F21D10E0816B2020822CE0DFF816
:10193000F004206000202071112060714FF48E703F
:10194000E0816A2020821FE0DFF8D80420600120B7
:1019500020711120607140F21B10E081692020820B
:1019600012E0DFF8C40420600020207113206071B1
:101970004FF48D70E0816820208205E0A822DFF816
:10198000AC140020FFF70AFC31BD10B5C0B200282E
:1019900006D002280AD006D304280DD009D30EE0C1
:1019A000DFF88C4411E0DFF88C440EE0DFF8884467
:1019B0000BE0DFF8884408E0DFF8844405E0BD224E
:1019C000DFF868140020FFF7E9FB200010BD38B5F0
:1019D0000400DFF87054C9B22000C0B255F82000EE
:1019E000FFF7FEFE2000C0B255F82000FFF705FF0C
:1019F0000028F7D031BD70B505000E00140006E0D8
:101A000031782800C0B2FFF7E2FF641E761C002C7C
:101A1000F6D170BD38B504000D0005E0297820002E
:101A2000C0B2FFF7D4FF6D1C28780028F6D131BD75
:101A300070B504000D000020DFF808642000C0B27B
:101A400056F82000FFF7C7FE002807D0E4B256F88A
:101A50002400FFF7BDFE2870012000E00020C0B286
:101A600070BD70B505000C00DFF8D8632800C0B267
:101A700056F82000FFF7DBFE400840000100280078
:101A8000C0B256F82000FFF7CFFE2800C0B256F8CB
:101A90002000FFF7CCFE30F0020001002800C0B2A9
:101AA00056F82000FFF7C0FE2800C0B256F820000C
:101AB000FFF7BDFE30F0200001002800C0B256F84C
:101AC0002000FFF7B1FE2800C0B256F82000FFF753
:101AD000AEFE30F0400001002800C0B256F82000F1
:101AE000FFF7A2FE2800C0B256F82000FFF79FFEC5
:101AF00030F0100001002800C0B256F82000FFF7B7
:101B000093FE2800C0B256F82000FFF790FE30F494
:101B1000807001002800C0B256F82000FFF784FE54
:101B20002800C0B256F82000FFF781FE30F4806034
:101B300001002800C0B256F82000FFF775FE002C07
:101B40000ED02800C0B256F82000FFF76AFE50F40D
:101B500000700100EDB256F82500FFF765FE0DE0BC
:101B60002800C0B256F82000FFF75BFE30F400708A
:101B70000100EDB256F82500FFF756FE70BD70B5B6
:101B800005000C00DFF8BC622800C0B256F8200047
:101B9000FFF747FE4008400001002800C0B256F899
:101BA0002000FFF73BFE2800C0B256F82000FFF7E8
:101BB00038FE30F0080001002800C0B256F82000BE
:101BC000FFF72CFE2800C0B256F82000FFF729FED0
:101BD00030F0200001002800C0B256F82000FFF7C6
:101BE0001DFE2800C0B256F82000FFF71AFE30F4A0
:101BF000807001002800C0B256F82000FFF70EFEEA
:101C00002800C0B256F82000FFF70BFE30F4007039
:101C100001002800C0B256F82000FFF7FFFD2800A1
:101C2000C0B256F82000FFF7FCFD30F40060010060
:101C30002800C0B256F82000FFF7F0FD002C0ED0AF
:101C40002800C0B256F82000FFF7EBFD50F004006A
:101C50000100EDB256F82500FFF7E0FD0DE0280089
:101C6000C0B256F82000FFF7DCFD30F004000100A0
:101C7000EDB256F82500FFF7D1FD70BD2DE9F84112
:101C8000A7B005000F00160028003100C0B2C9B28D
:101C9000884201D1012000E000201C00DFF88C8187
:101CA0004FF4CE724146C0B2FFF778FA2800210007
:101CB000C0B2C9B2884201D1012000E0002040F248
:101CC0009D124146C0B2FFF769FA02A8142100F044
:101CD00077FC342100220DF168084046FFF74CF8EC
:101CE0004C2100220DF11C084046FFF745F8FF008B
:101CF0003A00002354480021FEF726FF0700220087
:101D0000D2B23100C9B202A8FFF799FD08201B909A
:101D10009DF80D008DF870001AAA9DF80C1002981D
:101D2000FFF747FB06201B909DF80D008DF8700013
:101D30001AAA9DF814100498FFF73BFB00200790A7
:101D4000082008900820099002200B9000200C9099
:101D500000201290002014903A4C2800C0B254F891
:101D6000200000F073FD39492A00D2B238204243E6
:101D70000A4407A92800C0B254F8200000F024FC4F
:101D80002800C0B254F82000FFF754FD2A00D2B258
:101D90000321BDF91600FFF7BFFCBDF91600FFF7E0
:101DA000B7FC17F01F010091C7F357132A00D2B2F6
:101DB0000321C0B2FFF750FCBDF91600FFF7A8FCE5
:101DC0002A00D2B20321C0B2FFF7DBFCBDF9180034
:101DD000ADF800000320ADF8020001208DF80400EA
:101DE00007221B482900C9B250F82110684600F0AC
:101DF000CBFB00212800C0B2FFF7C1FE0021280064
:101E0000C0B2FFF72EFE28B0BDE8F0810000000050
:101E1000D07E281000000440000031400002314014
:101E2000000531408008314000073140C87B281050
:101E30000000604000006540000064400000634016
:101E40000000624030070828008096989411092805
:101E50001C07082800F10103810704D010F8011BBA
:101E6000820781B1FAD10268A2F10131914311F0E8
:101E7000803104BF50F8042FF6E709BAB1FA81F1B6
:101E800000EBD100401CC01A704700000CB430B504
:101E900083B00A4606A902910446002501940095E4
:101EA00002AB01A9084878441E3000F023FD019AD6
:101EB000157000284EBF04460198041B204603B04D
:101EC00030BC5DF80CFB00BF5BF7FFFF8268891830
:101ED000816003E082684169521A826081684269C8
:101EE0009142F7D27047C2688918C16003E0C268A6
:101EF0004169521AC260C16842699142F7D2704783
:101F000070B50400002C01D0012000E00020542214
:101F1000DFF8C415C0B2FFF741F90025207850F072
:101F2000010020700020A0600020E0606069206156
:101F30006078002803D0022810D007D315E061692B
:101F4000002266683000FEF717FF0EE06169490065
:101F5000002266683000FEF70FFF06E06169890025
:101F6000002266683000FEF707FF0020207028007E
:101F7000C0B270BD10B50400002C01D0012000E0FB
:101F800000207022DFF85015C0B2FFF707F9606932
:101F90002169401A10BD2DE9F84305001600002DF7
:101FA00001D0012000E000200C00AA22DFF8281553
:101FB000C0B2FFF7F3F800270020002C01D103275F
:101FC000B5E0287810F0050F01D00427AFE028789D
:101FD00050F0040028702869B042C0F0A380D5F802
:101FE0001480A868B8EB0008B04567D2687800286C
:101FF00003D0022841D01FD390E0424621006868F8
:10200000AB6800EB0309484600F006FD4146280096
:10201000FFF75CFFB6EB080204EB08016868AB68E9
:1020200000EB0304200000F0F7FCB6EB0808414683
:102030002800FFF74BFF71E05FEA48022100686863
:10204000AB6800EB4309484600F0E6FC4146280037
:10205000FFF73CFFB6EB0802520004EB480168684A
:10206000AB6800EB4304200000F0D6FCB6EB080898
:1020700041462800FFF72AFF50E05FEA880221006E
:102080006868AB6800EB8309484600F0C5FC414630
:102090002800FFF71BFFB6EB0802920004EB880153
:1020A0006868AB6800EB8304200000F0B5FCB6EB79
:1020B000080841462800FFF709FF2FE0687800284C
:1020C00003D002281DD00ED328E03200210068681A
:1020D000AB6800EB0304200000F09EFC31002800F8
:1020E000FFF7F4FE1AE0720021006868AB6800EBAD
:1020F0004304200000F090FC31002800FFF7E6FECA
:102100000CE0B20021006868AB6800EB830420009B
:1021100000F082FC31002800FFF7D8FE2869861BFA
:102120002E6100E00527287810F0FB0028703800A9
:10213000C0B2BDE8F2832DE9F04705000E001F0094
:10214000002D01D0012000E000201400DFF888837A
:1021500040F25B124146C0B2FFF720F8002C01D0DC
:10216000012000E000204FF4AE724146C0B2FFF7FC
:1021700015F85FF0000800200020002E02D15FF06B
:1021800003088BE0297811F0030F03D020605FF083
:1021900006089CE02800FFF7EDFE2168884209D27E
:1021A00020605FF00708002804D1287810F0F700BD
:1021B00028708CE0287850F008002870D5F814902A
:1021C000E868B9EB00092068814522D368780028C7
:1021D00003D0022813D008D35CE022686868E9685D
:1021E0000144300000F018FC54E022685200686896
:1021F000E96800EB4101300000F00EFC4AE0226883
:1022000092006868E96800EB8101300000F004FC8E
:1022100040E06878002803D0022827D011D339E0A5
:102220004A466868E9680144B246504600F0F4FB4B
:102230002268B2EB090269684E44300000F0ECFB02
:1022400028E05FEA49026868E96800EB4101B246AC
:10225000504600F0E1FB2268B2EB090252006968C7
:1022600006EB4906300000F0D7FB13E05FEA890275
:102270006868E96800EB8101B246504600F0CCFB8B
:102280002268B2EB09029200696806EB8906300009
:1022900000F0C2FB287810F0F7002870FFB2002F82
:1022A00015D128780B2802D15FF002080FE02878BA
:1022B00050F00200287021682800FFF714FE2969F9
:1022C000206841182961287810F0FD0028704046E8
:1022D000C0B2BDE8F0872DE9F04705000E001F00F1
:1022E000002D01D0012000E000201400DFF8E8817B
:1022F0004FF4DF724146C0B2FEF750FF002C01D010
:10230000012000E0002040F2BF124146C0B2FEF7BB
:1023100045FF5FF0000800200020002E02D15FF092
:102320000308ABE0297811F0070F03D020605FF0BD
:102330000608AFE02800FFF71DFE2168884209D299
:1023400020605FF00708002804D1287810F0F7001B
:1023500028709FE0287850F008002870E868A96885
:10236000884203D3A8682168884228D36878002867
:1023700003D0022817D00AD37CE022686968AB68D2
:1023800020681B1A1944300000F046FB72E02268F6
:1023900052006968AB6820681B1A01EB43013000EA
:1023A00000F03AFB66E0226892006968AB6820683A
:1023B0001B1A01EB8301300000F02EFB5AE0D4F829
:1023C0000090A868B9EB00096878002803D00228BB
:1023D00035D018D34EE04A4668686969B1EB090107
:1023E0000144B246504600F017FB2268B2EB0902E6
:1023F0006968AB6820681B1A194406EB09042000C1
:1024000000F00AFB36E05FEA490268686969B1EBEF
:10241000090100EB4101B246504600F0FDFA226886
:10242000B2EB090252006968AB6820681B1A01EB25
:10243000430106EB4904200000F0EEFA1AE05FEADF
:10244000890268686969B1EB090100EB8101B24654
:10245000504600F0E1FA2268B2EB09029200696886
:10246000AB6820681B1A01EB830106EB890420008E
:1024700000F0D2FA287810F0F7002870FFB2002F91
:1024800008D128780B2802D15FF0020802E028006A
:10249000FFF736FD4046C0B2BDE8F087F8B504004E
:1024A0000E0017001D00002C01D0012000E00020CC
:1024B0004FF407720849C0B2FEF770FE0020676053
:1024C0000021217066700021A1600021E16025617A
:1024D0006561C0B2F2BD0000507B2810010009B256
:1024E000002908D4012210F01F018A401B4900B2C4
:1024F000400941F820207047010009B2002908D4A2
:10250000012210F01F018A40154900B2400941F82C
:1025100020207047020012B2002A04D44901114A57
:1025200000B2115407E049010F4A00B210F00F0049
:10253000104400F8041C7047002800D162B60B4814
:102540000168491C0160704772B608490868002894
:1025500002D00868401E08600868704700E100E08B
:1025600080E200E000E400E018ED00E044180928F3
:1025700080B5FFF7E9FF00F0A3FA01BD80B5C9B24D
:1025800000B2FFF7C7FF01BD70B504000D001600D3
:10259000200000F0A5FA2900B4F9000000F0DFFAED
:1025A0003100C9B2B4F90200FFF7E8FFB4F9020044
:1025B000FFF7A2FFB4F90200FFF790FF70BD000023
:1025C000002200F0E3BA00002DE9F44FDFF8D82232
:1025D000DFF8D8321B68DFF8D8422468DFF8D4521D
:1025E0002D68DFF8D4623668DFF8D0723F68DFF814
:1025F000D0C2DCF800C0DFF8CCE2DEF800E0DFF8A3
:10260000C882D8F80080DFF8C492D9F80090DFF8CB
:10261000C0A2DAF800A0002800F01581002900F01F
:1026200012810A68022A06D191F82620002A02D1D6
:102630005FF0000B03E0D1F804B0BBF1010B91F89F
:102640002420002A01D0012200E0002262F310437E
:1026500033F440436BF30303022262F31963036014
:102660000A7812F0030262F31964046491F82520D9
:10267000002A01D0012200E0002262F38615CA7E02
:10268000002A01D0012200E0002262F38A254A7E5E
:10269000002A01D0012200E0002262F308258A7E90
:1026A000002A01D0012200E0002262F349258A6B52
:1026B000521E12F00F0262F313450A69521E12F005
:1026C0000702ED08ED0015434A6962F304154A69F3
:1026D000520862F3451585640A7B002A01D0012265
:1026E00000E0002262F308260A7E002A01D00122BF
:1026F00000E0002262F349268A68521E12F01F028F
:10270000760976011643C0F800630A7F02F0FF02E3
:102710003F0A3F02174391F8202002F0FF0262F3C4
:102720001747C0F8107391F82720002A01D0012222
:1027300000E0002262F3082C0A69521E12F0070220
:102740005FEADC0C5FEACC0C52EA0C0C4A6962F3DB
:10275000041C4A69520862F3451CC0F844C00A7B55
:10276000002A01D0012200E0002262F3082E8A68CC
:10277000521E12F01F025FEA5E1E5FEA4E1E52EA10
:102780000E0E0A68012A01D1012200E0002262F344
:10279000104EC0F800E291F83C2002F0FF025FEA20
:1027A00018285FEA082852EA0808C0F8048391F85C
:1027B0002820002A01D0012200E0002262F359699A
:1027C000CA6A012A01D1012200E0002262F31869DD
:1027D0004A6B012A01D1012300E00023009A63F330
:1027E000104991F8303003F0FF035FEA19295FEADE
:1027F000092953EA0909C0F8509091F8443003F0D0
:10280000FF035FEA1A2A5FEA0A2A53EA0A0AC0F8B3
:1028100004A28B6CC0F8883F096CC0F8C81F002A5E
:1028200010D0002050600020106000209060002038
:10283000D060002010620020D06200201063DFF81A
:102840009400506300221000BDE8F28FDFF888107A
:1028500001605FF4401101640021816440F20711BE
:10286000C0F800130022C0F804230022C0F810238F
:1028700000224264C0F800120021C0F804120021B6
:1028800001650021C0F8C81E0021C0F8881E002183
:10289000C0F8C81F0021C0F8881F0021C0F8081F19
:1028A0000021C0F8481F70470160AA00247F28104B
:1028B000287F28102C7F2810307F2810347F281084
:1028C000387F28103C7F2810407F2810447F281034
:1028D000487F2810EFCDAB000F00000370B5054610
:1028E0001C000846164604D016F8011BA847641EB3
:1028F000FAD170BD2DE9FC4383B081468846174666
:102900001D4607E001233A4641464846FFF7E6FFE9
:1029100080467F1C3878E0B12528F3D17978BF1C38
:10292000252912D058295CD0632915D0642918BFF5
:10293000692917D06F2954D0702957D073295BD0DB
:10294000752918BF78294CD0E4E74046C84780462F
:10295000E0E705B0BDE8F083286850F8041B286064
:10296000C9B2F2E7286850F8046B2860002E03D53E
:102970002D214046C847804664216F2908BF0822A0
:1029800005D041F02000782814BF0A2210220B2421
:102990006429304602D1002E48BF4042B0FBF2FC11
:1029A00002FB1C003030641EC3B23A2B05DA0DF86E
:1029B00004005FEA0C0003D104E040185138F6E748
:1029C000002CEBDC614211F10B0F0DEB04064046CD
:1029D000BDD0C4F10B0416F8011BC847641EFAD120
:1029E000B5E7286850F8046B2860C6E7286850F8F7
:1029F000046B28607821C0E7286850F8046B2860D1
:102A00003046FFF727FA04004046A0D016F8011B15
:102A1000C847641EFAD19AE762B38B0708D0521EEA
:102A200011F8013B00F8013B00F024808B07F6D140
:102A3000830740F0208000BF103A07D330B4B1E8DC
:102A40003810103AA0E83810F9D230BC530724BF30
:102A5000B1E80810A0E8081044BF51F8043B40F862
:102A6000043BD20724BF31F8022B20F8022B44BFCD
:102A70000B7803707047121F17D35B0009D151F810
:102A8000043B20F8023B1B0C121F20F8023BF6D23D
:102A90000BE051F8043B00F8013B1B0A20F8023B15
:102AA0001B0C121F00F8013BF3D238BF121D521E3F
:102AB00024BF11F8013B00F8013BF8D87047000033
:102AC000002007E00549C2018A5822F00042C301F4
:102AD000CA50401C3F28F5DB7047000000005840FA
:102AE00030B40021234A1368234A1468002832D0E6
:102AF000224A1568C5F303250E2D0FD01268C2F3C4
:102B000003220D2A28D1827812F00F022409240111
:102B100014430279002A15D0012214E0827812F0C1
:102B20000F021B091B0113430279002A01D0012265
:102B300000E0002262F3DF73114AB0F9000042F8AE
:102B4000203009E0002262F3DF740E4AB0F9000081
:102B500042F8204000E00649080030BC70470A4BAC
:102B60001A68002A03D01A6800B242F82010704791
:102B7000010056004C7F2810507F28100000204094
:102B800000A0204000C02040EC06082800B500BF8F
:102B9000130096469446103928BFA0E80C50FAD886
:102BA0005FEA417C28BF0CC048BF40F8042BC9072E
:102BB00028BF20F8022B48BF00F8012B00BD000001
:102BC00080B501000820DFF8FC251060C9B20120A3
:102BD000FDF7AAFC0820DFF8FC15086001BD2DE90F
:102BE000F047060015001F00DFF8DC853000B8F85C
:102BF000002080B2904201D2012000E000200C00B1
:102C0000DFF8C895B0224946C0B2FEF7C7FADFF830
:102C1000C0A52000BAF8001080B2884201D201207D
:102C200000E00020B1224946C0B2FEF7B7FA280002
:102C3000B8F8001080B2884201D2012000E00020E4
:102C4000B2224946C0B2FEF7A9FA3800BAF800101D
:102C500080B2884201D2012000E00020B322494620
:102C6000C0B2FEF79BFADFF870050078002805D0A7
:102C7000022847D024D3032866D086E02A20FFF715
:102C80009FFF2836310089B20120FDF7FDFC283571
:102C9000290089B20120FDF7F7FC2B20FFF790FFF8
:102CA0003434210089B20120FDF7EEFC34373900BD
:102CB00089B20120FDF7E8FC2C20FFF781FF64E0DA
:102CC0002A20FFF77DFF2836310089B20120FDF769
:102CD000DBFC2835290089B20120FDF7D5FC2B202B
:102CE000FFF76EFF3534210089B20120FDF7CCFCDF
:102CF0003537390089B20120FDF7C6FC2C20FFF7DB
:102D00005FFF42E02A20FFF75BFF3436310089B2D3
:102D10000120FDF7B9FC3435290089B20120FDF707
:102D2000B3FC2B20FFF74CFF2834210089B201208F
:102D3000FDF7AAFC2837390089B20120FDF7A4FC71
:102D40002C20FFF73DFF20E02A20FFF739FF353622
:102D5000310089B20120FDF797FC3535290089B291
:102D60000120FDF791FC2B20FFF72AFF28342100DA
:102D700089B20120FDF788FC2837390089B201208B
:102D8000FDF782FC2C20FFF71BFFBDE8F08700B5A4
:102D900085B06846FEF720FA0120ADF80000DFF8A4
:102DA00028040088ADF80200DFF824040088ADF89C
:102DB0000400DFF874050078002803D002280FD043
:102DC00007D30DE006208DF8060008208DF80700D7
:102DD00006E008208DF8060010208DF80700FFE7B8
:102DE0000FF2353003900FF2110004906846FEF7A1
:102DF00003FA05B000BD000070B5002000200820D7
:102E0000DFF828150860DFF8C043DFF8C4532888CE
:102E1000431E9BB22088421E92B200210020FFF781
:102E2000DEFE002007E0DFF808150988DFF804253A
:102E300022F81010401C21888842F4D3002606E0B6
:102E40002288DFF8F0140120FDF773FC761C288837
:102E50008642F5D30820DFF8E014086070BDDFF883
:102E60007813087008780028012803D9801E0128EB
:102E700009D910E0F020DFF8501308808720DFF830
:102E80005013088007E08720DFF83C130880F0200B
:102E9000DFF83C1308807047DFF8A0241080DFF8CB
:102EA000900401807047F8B504000D001600200062
:102EB000DFF81413098880B2884201D2012000E0B3
:102EC0000020DFF8087340F27B123900C0B2FEF731
:102ED00065F92800DFF8F812098880B2884201D22B
:102EE000012000E000204FF4BE723900C0B2FEF7AE
:102EF00055F90820DFF8341408602B009BB222003B
:102F000092B2290089B2200080B2FFF768FE31003A
:102F100089B20120FDF7B8FB0820DFF81C14086017
:102F2000F1BDF8B5D8B005000E0014002800DFF898
:102F30009812098880B2884201D2012000E0002066
:102F4000DFF888724FF4E9723900C0B2FEF726F953
:102F50003000DFF87C12098880B2884201D201205B
:102F600000E0002040F2D3123900C0B2FEF716F99B
:102F7000002000200820DFF8B4130860DFF8A80361
:102F80000078002804D0022800F0BF8046D3BCE0BF
:102F9000F31D9BB26A1D92B2310089B2280080B243
:102FA000FFF71DFE002000E0401C0100C9B2062909
:102FB0002EDA0621DFF888232300DBB24B431A44C4
:102FC0000300DBB21A4412F8C02C00230BE040AD22
:102FD0001E00F6B24E4356FA80F6DFF854733F886F
:102FE00025F8167010E01D00EDB2082DDCDAD507CB
:102FF000EDD540AD1E00F6B24E4356FA80F6DFF82E
:103000003C733F8825F81670D2B252085B1CEAE781
:10301000302240A90120FDF78CFB76E016F10F036A
:103020009BB2EA1D92B2310089B2280080B2FFF74C
:10303000D6FD002000E0401C0100C9B208295EDA7C
:10304000DFF800232100C9B2090111440300DBB2FB
:103050001944B1F5007109782300DBB21B011A4451
:103060000300DBB21A44B2F5FC72127800231BE0B5
:103070006D461E00F6B2F60056FA80F6DFF8B07222
:103080003F8825F816700CE0CD07F1D56D461E007F
:10309000F6B2F60056FA80F6DFF8A0723F8825F8FF
:1030A0001670C9B249085B1C1D00EDB2082DEBDBA0
:1030B00000210DE06B460D00EDB2ED0055FA80F5F4
:1030C00003EB4503DFF868522D88A3F8805012E027
:1030D0000B00DBB2082BAEDAD307EBD56B460D0045
:1030E000EDB2ED0055FA80F503EB4503DFF84C52E5
:1030F0002D88A3F88050D2B25208491CE8E78022FC
:1031000069460120FDF715FBFFE70820DFF8B8143A
:10311000086059B0F0BD0000F8B504000E001500BD
:103120002000DFF8A410098880B2884201D2012073
:1031300000E00020DFF8947040F229223900C0B28C
:10314000FEF72CF83000DFF88810098880B288423A
:1031500001D2012000E0002040F22A223900C0B252
:10316000FEF71CF800270EE00CE0380080B22A5C65
:10317000310089B2380080B2C00010FA84F080B209
:10318000FFF7CFFE7F1C380080B2285C002817D0E4
:10319000DFF8B4010078002803D00228E4D0E4D39B
:1031A000F0E7380080B22A5C310089B23B009BB264
:1031B0000620434313FA84F080B2FFF7B2FEE1E742
:1031C000F1BD0000040B3140440708288C7B281017
:1031D00046070828080B31406C1809282DE9F047EC
:1031E000804614009A464046DFF8E423128880B2F5
:1031F000904201D2012000E000200F00DFF8D493BC
:1032000040F2F9224946C0B2FDF7C8FF3800DFF8A6
:10321000BC13098880B2884201D2012000E000205E
:1032200040F2FA224946C0B2FDF7B8FF002C01D0A7
:10323000012000E000200A9D099E40F2FB22494641
:10324000C0B2FDF7ABFF00200020002000200820C6
:1032500036490860E819431E9BB216EB0800421E6F
:1032600092B2390089B2404680B2FFF7B8FC5FF0F5
:103270000009089FDDF82C8007E0320092B22D494A
:103280000120FDF756FA19F10109280080B28145A5
:1032900044D2380080B200FB09F0290089B2B0FBAB
:1032A000F1F1504680B241432144002210E04FF634
:1032B000FF70204B23F8120009E04346DBB280B2D6
:1032C0009BB29842F3D200201A4B23F81200521CF2
:1032D000300080B28242D0D2504680B200FB02F071
:1032E00033009BB2B0FBF3F0085C4346DBB2002B2B
:1032F000E3D10300DBB2DB08DBB2DB0284465FFA1A
:103300008CFC5FEA9C0C5FFA8CFC53EA4C13C0F314
:10331000C4000343074820F81230D8E70820DFF83C
:10332000A8120860BDE8F08750070828040631405D
:103330004A070828B40F092808063140480708281A
:10334000C86528108C542810500708281FB506207F
:10335000029003200190012000900123A14A002146
:103360000120FDF7B3FA032300220121B32000F06E
:10337000CDF9032300220121B42000F0C7F9032373
:1033800001220121632000F0C1F903230122012160
:10339000582000F0BBF9944C2078FFF760FD8F486F
:1033A00001888F480088FFF777FD10208F4908605B
:1033B000052000F0CEFA10208D490860782000F03A
:1033C000C8FA0820844908601120FFF7F9FB36206D
:1033D000FFF7F6FB2078002805D002280DD007D390
:1033E00003280FD012E0A0210120FDF79DF80DE089
:1033F00070210120FDF798F808E000210120FDF779
:1034000093F803E0C0210120FDF78EF83A20FFF782
:10341000D7FB05210120FDF787F8B220FFF7D0FB8D
:103420000C210120FDF780F80C210120FDF77CF82C
:1034300000210120FDF778F833210120FDF774F811
:1034400033210120FDF770F8B720FFF7B9FB3521D4
:103450000120FDF769F8BB20FFF7B2FB37210120FF
:10346000FDF762F8C020FFF7ABFB2C210120FDF730
:103470005BF8C220FFF7A4FB01210120FDF754F8FF
:10348000C320FFF79DFB12210120FDF74DF8C4205A
:10349000FFF796FB20210120FDF746F8C620FFF735
:1034A0008FFB0F210120FDF73FF8D020FFF788FBAD
:1034B000A4210120FDF738F8A1210120FDF734F8FF
:1034C000E020FFF77DFBD0210120FDF72DF804213E
:1034D0000120FDF729F80D210120FDF725F8112124
:1034E0000120FDF721F813210120FDF71DF82B2104
:1034F0000120FDF719F83F210120FDF715F85421AF
:103500000120FDF711F84C210120FDF70DF81821DD
:103510000120FDF709F80D210120FDF705F80B2129
:103520000120FDF701F81F210120FCF7FDFF2321F9
:103530000120FCF7F9FFE120FFF742FBD021012039
:10354000FCF7F2FF04210120FCF7EEFF0C21012023
:10355000FCF7EAFF11210120FCF7E6FF132101200F
:10356000FCF7E2FF2C210120FCF7DEFF3F210120C8
:10357000FCF7DAFF44210120FCF7D6FF512101209E
:10358000FCF7D2FF2F210120FCF7CEFF1F210120E5
:10359000FCF7CAFF1F210120FCF7C6FF20210120F4
:1035A000FCF7C2FF23210120FCF7BEFF2120FFF71B
:1035B00007FB2920FFF704FB082003490860FFF7F9
:1035C0001BFCFFF7E4FB1FBD080631404607082837
:1035D000440708288C7B2810040631404A07082835
:1035E0004807082880C3C9016C180928040B31401A
:1035F000080B31400069C84010F0010070470122FB
:1036000012FA01F181607047012212FA01F1416062
:103610007047012212FA01F1C160704710B48900AD
:10362000436C0F248C40A34312F00F0212FA01F1F5
:103630001943416410BC704780B5C9B200290ED04F
:103640000100C9B2082291FBF2F302FB1311514AA7
:10365000C0B2C010C0011044FFF7D1FF0DE001005F
:10366000C9B2082291FBF2F302FB1311494AC0B21E
:10367000C010C0011044FFF7C7FF01BD80B50100B5
:10368000C9B2082291FBF2F302FB1311414AC0B206
:10369000C010C0011044FFF7ADFFC0B202BD80B53D
:1036A0000100C9B2082291FBF2F302FB1311394A5F
:1036B000C0B2C010C0011044FFF7ABFF01BD10B590
:1036C000C9B200290BD1D2B2002A02D0022A02D0FC
:1036D00003E00F220BE00B2209E00A2207E0D2B23E
:1036E000042A01D10C2200E00E2212F00702010090
:1036F000C9B2082391FBF3F403FB1411254BC0B2AC
:10370000C010C0011844FFF789FF10BD2DE9F84132
:103710008DB004000E0015001F0034210022E84681
:103720004046FDF729FBF6B2002E0ED1FFB2002F66
:1037300002D0022F03D005E00F2001900DE00820F9
:1037400001900AE00820019007E0FFB2042F02D1A7
:103750000F20019001E00E2001902000C0B2C0288F
:103760000FD02100C9B208206A4691FBF0F300FB9C
:10377000131108482300DBB2DB10DB011844FDF70E
:1037800018FE2900C9B22000C0B2FFF755FF0EB0E5
:10379000BDE8F08100003140022801D301200FE094
:1037A0000B00DBB2042B01DB012009E0AA4B03EB89
:1037B0008000C9B2405C824201D3012000E00020B9
:1037C0007047F8B506000F0015001C00022E01D34B
:1037D00001201CE02A003900C9B23000FFF7DCFFED
:1037E000012801D1012012E03800C0B2002811D117
:1037F000B4F5807F0CD299487603304400EB850005
:1038000010F58050016864F30F2101600020F2BDC3
:103810000120FCE7FFB2012F10D1B4F5803F0BD29D
:103820008E487603304400EB850010F5A050016807
:1038300064F317210160E9E70120E8E70120E6E7EA
:1038400000B20012C0B27047F8B505000E001700B4
:10385000280000B2FFF7F4FF04002000C0B20228E5
:1038600001D3012023E03A003100C9B22000C0B2E8
:10387000FFF792FF012801D1012018E077492000CD
:10388000C0B2400308442A00D2B200EB8200D0F854
:10389000000CF6B266F3092067F30700E4B2640394
:1038A0002144EDB201EB8501C1F8000C0020F2BD0E
:1038B00070B504000D001600022C01D301201CE09D
:1038C00032002900C9B22000FFF766FF012801D1AC
:1038D000012012E061496003085850F0004050F0A8
:1038E000407050F47F00EDB265F3092066F30700E5
:1038F0006203885064030859002070BDF8B50600C3
:10390000F600574C574D00212078C001284400F0A4
:1039100074F912E02078C001284400F070F9B84230
:10392000F8D32078C001284400F069F9361A002144
:103930002078C001284400F060F94CF25137BE42B3
:10394000E8D22078C001284400F059F98642F8D224
:10395000F1BDF8B504004FF4FA504443404D414ED8
:1039600000212878C001304400F047F914E028789D
:10397000C001304400F043F9B842F8D33A4F3C1943
:103980002878C001304400F03AF93F18390028780F
:10399000C001304400F031F94CF25137BC42E6D25C
:1039A0002878C001304400F02AF98442F8D2F1BDF1
:1039B00038B594B0502100226C462000FDF7DCF9A8
:1039C0002A4C00220121B4F90000FFF73DFFB4F9B1
:1039D0000000FFF735FF092300220121C0B2FFF7E5
:1039E000F0FEB4F90000FFF72BFF00220121C0B266
:1039F000FFF75EFF5FF0FF30009000208DF80400BD
:103A000000208DF8050000208DF8060000208DF8BC
:103A1000080003208DF844000120129001208DF849
:103A200007000F4C0F4D69462078C001284400F074
:103A30001FF82078C001284400F0DAF8002120782F
:103A4000C001284400F0D9F82078C001284400F0D3
:103A5000E6F815B030BD0000D07E2810000004400C
:103A60005107082800005940B03CFFFF4C070828C8
:103A700010B4012291F84C30052B03D291F84D304F
:103A8000052B01D31000A7E0002800F0A480002936
:103A900000F0A180514A12684B7963F392428B790E
:103AA00013F0030363F311420B7A13F0070363F37C
:103AB0001A62CB7963F39E720B7D63F3000291F877
:103AC000243063F3410202600A7910F130031C686C
:103AD00062F307041C604A79012A0BD18A79002A13
:103AE00002D10022826007E08A79012A04D10A68A3
:103AF000826001E001228260CA6802610A69426153
:103B0000CA6982610A6AC2610A680262344A12683A
:103B10000B7E03F0FF03120A12021A4391F83030B1
:103B200003F0FF0363F3174291F8403003F0FF0303
:103B300063F31F6291F8483003F0FF0363F30F2231
:103B40004264284A126891F8383003F0FF03120AE1
:103B500012021A4391F8283003F0FF0363F30F2297
:103B60008264214A12688B7D13F00303920892004D
:103B70001A4391F8253013F0030363F38B2291F875
:103B80002C3013F0030363F3051291F8343013F073
:103B9000030363F3092291F83C3013F0030363F34A
:103BA000871291F8443013F0030363F38302C26475
:103BB0000E4A126891F84C3013F00703D208D20075
:103BC0001A4391F84D3013F0070363F30612426570
:103BD000497D81670022100010BC7047547F281077
:103BE000587F28105C7F2810607F2810647F281081
:103BF000016851F000410160704781607047806842
:103C000070477830016851F001010160704710F190
:103C100070010A6852F001020A60006F704740307C
:103C2000016851F01001016070470000DFF8C41115
:103C30000868C0F34000002801D0022002E00868B4
:103C400010F001007047DFF8B001006810F00100CB
:103C500070470000C21E022A01D3012002E0C01EEC
:103C60000860002070471CB5FF246946FFF7F2FF8B
:103C7000C0B2002802D02000C0B207E0DFF8FC018B
:103C8000009950F8210010F00100C0B216BD0000EC
:103C9000002801D0032801D3012002E0401E086063
:103CA000002070471CB5FF246946FFF7F1FFC0B242
:103CB000002802D02000C0B208E0DFF8C40100995B
:103CC00009010844C06810F00100C0B216BD000030
:103CD000DFF8BC010068800810F00100704738B5BB
:103CE00004002000C0B2082811D3DFF89851182230
:103CF000DFF89411280000F00DFC0020E87540F674
:103D00005B00DFF888110860002000F03BFCDFF862
:103D1000CC112000C0B251F82000C0F300200028D0
:103D200005D0E4B251F8240010F00F0000E0FF20AD
:103D300032BD38B504002000C0B2082811D3DFF826
:103D400044511822DFF84011280000F0E3FB002066
:103D5000E8754FF40960DFF834110860002000F0C6
:103D600011FCDFF87801E4B250F82400C0F3011030
:103D7000C0B232BDDFF868211368C3F307230360C4
:103D80001068C0F3C40008607047DFF8582113685A
:103D9000C3F3072303601068C0F3C40008607047D2
:103DA00038B50400072C11D3DFF8D8501822DFF8FB
:103DB000C411280000F0AEFB0020E8754FF4CE706F
:103DC000DFF8C8100860002000F0DCFBDFF8A0017D
:103DD00050F8240010F00700010009B2042907D1AF
:103DE000DFF8880150F8240010F01F0050F48070B4
:103DF00000B232BD2415264040152640DFF8B0122F
:103E000009688A03920B0260090E11F00101C17169
:103E1000DFF8A01209680A00D204D20C82800A00DE
:103E2000120C02F0FF020281090C01F0FF01418136
:103E3000DFF84411096811F00F0202730A00C2F39F
:103E4000031242730A00120AD204D20CC281090F73
:103E500011F003010174DFF8641309680A00120A03
:103E600012F0070282710A00120CD205D20D4282B2
:103E7000890F11F0010101757047000040162640BE
:103E8000001926405817092898782810241809285E
:103E9000100027401CB50C006946FFF7DBFE01004F
:103EA000C9B2002901D0C0B217E0DFF8B40400990C
:103EB00050F8210010F07F012160C0F304216160FF
:103EC000C0F30441A1600100090F11F00301617307
:103ED000C00E10F001002073002016BD40122640D5
:103EE00008002040080420401CB50C006946FFF77C
:103EF000CFFE0100C9B2002901D0C0B235E0DFF821
:103F0000101500980001085800F0FF022260C0F36D
:103F100004226260C0F30442A260000F10F00300AC
:103F2000207300980001084442681000C00F6073BD
:103F3000C2F30270002801D0012000E00020A0732D
:103F400022F07F422261009800010844806801004D
:103F5000C90F21750100090E11F001016175A075ED
:103F6000000C10F00700E075002016BD000126408F
:103F700000122640E47828103815264080B501004C
:103F8000DFF868051822FEF757FD0120DFF86015FD
:103F90000870002002BDDFF85C150968C90F002910
:103FA00008D0DFF84C150978002907D100210160FD
:103FB00003207047002101600320FAE7DFF82C1589
:103FC000096801600020F4E710B50400FFF72EFE39
:103FD000002803D10020206003200DE0DFF8100549
:103FE0000078002805D0DFF80405806820600020F4
:103FF00002E000202060032010BD0000DFF8F01474
:104000000978002905D0DFF8E41449680160002030
:1040100002E00021016003207047DFF8DC1409682A
:10402000C90F002908D0DFF8C8140978002907D182
:104030000021016003207047002101600320FAE79E
:10404000DFF8A814C96801600020F4E7DFF8AC14B9
:104050000968C90F002908D0DFF8941409780029ED
:1040600007D1002101600320704700210160032077
:10407000FAE7DFF87814096901600020F4E710B569
:104080000400FFF725FE002803D100202060032054
:104090000DE0DFF85C040078002805D0DFF84C0460
:1040A00040692060002002E000202060032010BD55
:1040B000301526403415264010B50C00C0B2FFF76D
:1040C0006FFE00280ED0012810D0022812D0B0F5C3
:1040D000887F13D040F21111884213D0B0F58A7F47
:1040E00014D017E02000FFF756FF16E02000FFF77E
:1040F00085FF12E02000FFF767FF0EE02000FFF7CA
:104100008CFF0AE02000FFF7BAFF06E02000FFF76F
:104110009DFF02E000202060032010BD80B501005B
:104120000020FFF7C9FF02BD80B50322D2B2824250
:1041300003D200200860012003E0401CC0B2FFF75A
:10414000BBFF02BD18B587B004006846FFF7E6FF65
:104150000100C9B2002903D000212160C0B22BE0C8
:1041600001A8FFF74BFE9DF81400022803D1009828
:104170002060002020E0DFF888030068C00F0028DE
:1041800008D0FFF760FDC0B2002807D100202060F2
:10419000032011E00098206000200DE000990198B4
:1041A0004143BDF80800B1FBF0F09DF80B10491C2D
:1041B000B0FBF1F02060002008B010BD3C15264097
:1041C000F0B58BB005000C0069462800C0B2FFF7BF
:1041D000ABFF0100C9B2002903D000212160C0B2A9
:1041E000BCE02800C0B202284CD307A92800C0B206
:1041F000401CFFF74FFEC0B2002811D0DFF8046367
:104200001822DFF80413300000F084F90020F07564
:1042100040F66310DFF8F4120860002000F0B2F9F5
:104220004F482900C9B200EB810050F8080CC00FBC
:10423000002807D09DF82900022807D100982060A7
:1042400000208BE000982060002087E0EDB26D1C1C
:104250002800FFF708FD0100C9B2002902D0C0B252
:10426000FF2803D100202060032077E00099079801
:1042700041430898B1FBF0F00999B0FBF1F02060E0
:1042800000206BE001A92800C0B2401CFFF72CFE03
:10429000C0B2002811D0DFF86C621822DFF8681273
:1042A000300000F037F90020F07540F67F10DFF89D
:1042B0005C120860002000F065F955482900C9B279
:1042C00009014058C00F002807D09DF810000228AF
:1042D00007D100982060002040E000982060002076
:1042E0003CE0EDB26D1C2800FFF7DCFC0100C9B218
:1042F000002902D0C0B2FF2803D100202060032093
:104300002CE09DF8110001281DD1009A0023019E88
:1043100000273F0647EA162736060598002136187B
:104320004F41A6FB020106FB031107FB0211029A93
:10433000039BA3FB0223FCF707FC000E40EA0120CD
:10434000090E206009E00099019841430298B1FBF1
:10435000F0F00399B0FBF1F0206000200BB0F0BD4D
:104360000016264010B50323421E0400E4B2002CC0
:1043700003D10800FFF7E6FE0CE01400DBB2E4B264
:10438000A34204D31000C0B2FFF71AFF02E0C0B28C
:10439000FFF792FE10BD38B505000C002800C0B232
:1043A000FFF79DFC0100C9B2FF2904D12000FFF7EF
:1043B000F2FDC0B21BE06946C0B2FFF7D3FF0100B7
:1043C000C9B2002903D000212160C0B20FE028004B
:1043D000C0B2FFF7AEFCC0B2002805D002280BD057
:1043E00006D303280CD00FE000982060002032BDD7
:1043F000009840082060F9E7009880082060F5E701
:104400000098C0082060F1E7002020600320EEE75C
:10441000001926401FB5040002A90120FFF7BBFFC9
:104420000100C9B2002903D000212160C0B21AE006
:10443000694601A8FFF79EFC01980021421C71F11A
:10444000FF335B0143EAD263520100980021121846
:104450004B4102980021490141EAD0614001FCF73B
:1044600073FB2060002004B010BD1FB5040002A93A
:104470000120FFF790FF0100C9B2002903D00021FD
:104480002160C0B21AE0694601A8FFF77EFC0198DE
:104490000021421C71F1FF335B0143EAD2635201F8
:1044A0000098002112184B4102980021490141EA6D
:1044B000D0614001FCF748FB2060002004B010BD33
:1044C00080B5DFF84C100A68C2F303220E2A07D029
:1044D0000968C1F303210D2905D1FFF7C6FF02BD0D
:1044E000FFF798FFFBE70120F9E7000040170928D4
:1044F0006218092818152640081526400C15264074
:104500003015264058170928E4782810241809285F
:104510000000204001B58B071AD1830724D1121F58
:1045200021D351F8043BA3F1013C2CEA030C1CF00D
:10453000803C04BF40F8043BF1E79CFA8CFCBCFAD9
:104540008CF1C1F118018B40CB4040F8043B13E0E3
:10455000042A09D311F8013B521E00F8013B5BB15C
:104560008B07F7D1D9E7121D5AB111F8013B521E42
:1045700000F8013B03B1F8D111001CBF0022FCF789
:10458000FFFB01BD01BEFEE780B5234A23490B684E
:1045900093423ED00A60224A12684A62214A8A62E5
:1045A00002684A6042688A608268CA60C2680A61BA
:1045B00002694A6142698A618269CA61C2690A62A2
:1045C000F1EE102A12F0900F23D0174A8A62026A85
:1045D000CA62426A0A63826A4A63C26A8A63026B77
:1045E000CA63426B0A64826B4A64C26B8A64026C5F
:1045F000CA64426C0A65826C4A65C26C8A65026D47
:10460000CA65426D0A66826D4A66C26D8A66006E30
:10461000C86600F00BF801BDFAF9F8F7281609286A
:1046200028ED00E0A4A3A2A1ABAAA9A8FEE7000080
:1046300070B504000D00DFF83C682A0092B2120A3F
:10464000D2B22100C9B2300000F084FE2A00D2B2FA
:10465000F021300000F07EFE70BD2DE9F04704002F
:104660000D00012600275FF000085FF00A094846A8
:1046700040B2002836D0484640B2052190FBF1F206
:1046800001FB1200002810D1DFF8E8A72A0092B23F
:10469000120AD2B22100C9B2504600F05BFE2A00D5
:1046A000D2B2F021504600F055FEDFF8C8A7210035
:1046B000C9B2504600F076FE0700F021504600F0E7
:1046C00071FE8046280080B23900C9B24246D2B29B
:1046D00052EA0122904202D10020060002E0B9F124
:1046E0000109C4E7300040B2BDE8F08770B50400AE
:1046F000DFF880672100C9B2300000F053FE0500EA
:10470000F021300000F04EFEEDB2C0B250EA0520BC
:1047100080B270BDF8B50400002500260127DFF83F
:1047200054075C210172E168C16021680160616821
:1047300041600020FFF7DAFF0600300080B241F24E
:10474000243188420BD0300080B241F211318842CE
:1047500005D0300041F2133180B2884202D10020EE
:10476000070004E06D1C2800C0B21528E1DB38000A
:10477000C0B2F2BD2DE9F14F8AB05FF0000A00240B
:104780000020ADF8200000250020ADF80600002034
:10479000ADF81E000020ADF81C0000265FF00008F8
:1047A00000270A98C088ADF808000A984089ADF83B
:1047B0000A000A98C089ADF80C000A98408AADF842
:1047C0000E000A98C08AADF810000A98408BADF828
:1047D00012000A98C08BADF814000A98408CADF80E
:1047E00016000A98C08CADF81A004BF6EF61FE2057
:1047F000FFF71EFF03210C20FFF71AFF0020FFF731
:1048000075FF070041F22439380080B248450BD0CB
:10481000380080B241F21131884205D0380041F2AF
:10482000133180B2884200D109E018F101084046F6
:10483000C0B2142802DB0120060000E0DEE73000F1
:10484000C0B2002840F01083BDF81000792808DAC3
:10485000BDF8100080B28000ADF806005AF0020AE0
:1048600016E0BDF81000F12808DABDF8100080B29B
:104870004000ADF806005AF0010A09E0BDF810004A
:1048800040F2E111884203DABDF81000ADF80600ED
:10489000BDF80E00BD2807DABDF80E0080B280001A
:1048A00005005AF0080A16E0BDF80E0040F2791132
:1048B000884207DABDF80E0080B2400005005AF0C9
:1048C000040A08E0BDF80E0040F2F121884202DA45
:1048D000BDF80E000500DFF8A0B540F24E3128000B
:1048E00080B2091ACBF800103800494680B28842DD
:1048F0007AD148F288310720FFF7AFFE8019060011
:10490000DFF87815BDF81020921C2B009BB2DBF865
:104910000000C3185A43121D91FBF2F0040020005E
:1049200080B240F2F511884202DB4FF4FA700400C5
:104930002000BDF80C1080B2884201D2ADF80C40C6
:10494000DFF83C15DFF83405BDF80C2090FBF2F2DF
:10495000121F2B009BB2DBF80000C31892FBF3F28E
:10496000BDF81000121A0A6047F621600A688242F8
:1049700002DA0A68022A0EDA0A68022A02DA022039
:10498000086008E00A68824203DB47F6206008609E
:1049900001E008680860DFF8E404BDF80C2090FB33
:1049A000F2F2121F0968BDF81000411892FBF1F1F4
:1049B000280080B2091ACBF80010DBF800003D286F
:1049C00003DA3D20CBF8000081E0DBF80000B0F511
:1049D000806F04DB40F2FF30CBF8000077E0DBF8BB
:1049E0000000CBF8000072E0DFF89014BDF8102052
:1049F000121D2B009BB2DBF80000C3185A43121D96
:104A000091FBF2F00400200080B240F2F5118842E0
:104A100002DB4FF4FA7004002000BDF80C1080B2E5
:104A2000884201D2ADF80C40DFF85414DFF84C0492
:104A3000BDF80C2090FBF2F2121F2B009BB2DBF8AA
:104A40000000C31892FBF3F2BDF81000121A0A60BE
:104A500040F6B9300A68824202DA0A68042A0EDA9D
:104A60000A68042A02DA0420086008E00A68824220
:104A700003DB40F6B830086001E008680860DFF842
:104A8000FC03BDF80C2090FBF2F2121F0968BDF880
:104A90001000411892FBF1F1280080B2091ACBF8FE
:104AA0000010DBF800002B2803DA2B20CBF80000E5
:104AB0000DE0DBF80000B0F5806F04DB40F2FF3062
:104AC000CBF8000003E0DBF80000CBF80000DFF8D3
:104AD000B0030168BDF810004118891EBDF80A0036
:104AE000814208DADFF898030168BDF81000411828
:104AF000881EADF80A00280080B2D0F53C70022173
:104B000090FBF1F0BDF91210020012B2D14203DAAB
:104B1000010009B2494209E00100BDF9122009B2C1
:104B2000914201DA010001E0BDF91210ADF8121056
:104B3000401CBDF91210411AADF81E10BDF8061048
:104B4000D1F5F071022291FBF2F1BDF914200B00B6
:104B50001BB2DA4203DA080000B2404209E0080062
:104B6000BDF9142000B2904201DA080001E0BDF95D
:104B70001400ADF81400091DADF82010BDF9201087
:104B8000BDF914004118ADF81C1001211B20FFF7DE
:104B900064FD80198DF804009DF804000090BDF8B4
:104BA0001E100120FFF759FD009940188DF80400F0
:104BB0009DF804000090BDF81C100220FFF74DFD89
:104BC000009940188DF804009DF804000090BDF88D
:104BD00006100320FFF741FD009940188DF80400EE
:104BE0009DF804000090290089B20420FFF735FDEC
:104BF000009940188DF804009DF804000090DBF83F
:104C00000000010089B20520FFF727FD0099401838
:104C10008DF804009DF804B099480068010089B23D
:104C20000620FFF71AFD10EB0B0B8DF804B09DF872
:104C300004B04FF4B2710A20FFF70FFD10EB0B0B1D
:104C40008DF804B09DF804B040F2BB110820FFF7C6
:104C500004FD10EB0B0B8DF804B09DF804B040F28E
:104C6000D9110920FFF7F9FC10EB0B0BBDF8080078
:104C7000002807D1BDF80A100B20FFF7EEFC10EB5F
:104C80000B0083465AF44C7189B20D20FFF7E5FC06
:104C900010EB0B008DF804009DF8046027213120F3
:104CA000FFF7DBFC86198DF804609DF804601A217B
:104CB0003220FFF7D2FC86198DF804609DF804605D
:104CC00005213320FFF7C9FC8619BDF816103520E1
:104CD000FFF7C3FC80198DF80400380080B2484506
:104CE00029D1504680B2042801DB012100E00021D7
:104CF0009DF80460C9B2090189B27220FFF7ADFCCA
:104D000086198DF804609DF8049040F201110F207F
:104D1000FFF7A3FC10EB090981214720FFF79DFC59
:104D200083461BEB090BEC214820FFF796FC06009D
:104D300016EB0B0615E09DF8049011210F20FFF7EC
:104D40008CFC10EB090981214720FFF786FC834684
:104D50001BEB090BE7214820FFF77FFC060016EB51
:104D60000B064FF462710720FFF777FC80198DF86E
:104D700004009DF804B040F203311C20FFF76DFCE5
:104D800010EB0B0B03212C20FFF767FC814619EB7E
:104D90000B09BDF80800002807D10021AF20FFF75C
:104DA0005CFC060016EB09064DE0BDF80810A520D6
:104DB000FFF753FC060016EB09060221A620FFF7B9
:104DC0004CFC83461BEB060B0221A820FFF745FC99
:104DD00010EB0B008DF80400BDF80E10BDF81000AC
:104DE0004143042091FBF0F0B0F5803F08DABDF8B4
:104DF0000E10BDF810004143042091FBF0F101E0DA
:104E00004FF6FF719DF8046089B2B020FFF725FCD2
:104E100086198DF804609DF804901421AE20FFF7E8
:104E20001CFC10EB090940F20111AF20FFF715FC43
:104E300083461BEB090BBDF80A10AD20FFF70DFCF4
:104E4000060016EB0B06BDF808000E490860BDF819
:104E50000A000D490860BDF810000C4908604DF6C5
:104E6000AD61FE20FFF7E4FB3000C0B20BB0BDE83F
:104E7000F08F00001418092850180928C0FC9B0165
:104E80004C18092854180928581809285C180928AA
:104E90001CB50400002C01D0012000E000204122BC
:104EA000DFF8A414C0B2FCF779F9DFF8A0040121FF
:104EB0002278D21010EBC212237813F0070311FAF4
:104EC00003F313602279D21010EBC210227912F092
:104ED000070211FA02F20260E06800900098421E98
:104EE00000920028FAD1DFF868242079C01012EB74
:104EF000C010237913F0070311FA03F30360E0688D
:104F000000900098431E00930028FAD12078C0102A
:104F100012EBC012207810F0070081401160E068A9
:104F200000900098411E00910028FAD113BD1CB5D5
:104F30000400002C01D0012000E000205522DFF801
:104F40000814C0B2FCF72AF9DFF804040121227921
:104F5000D21010EBC212237913F0070311FA03F3F6
:104F600013602278D21010EBC210227812F00702E0
:104F700011FA02F20260E06800900098421E00926E
:104F80000028FAD1DFF8C4232078C01012EBC0103B
:104F9000237813F0070311FA03F30360E06800902D
:104FA0000098431E00930028FAD12079C01012EB1C
:104FB000C012207910F0070081401160E068009075
:104FC0000098411E00910028FAD113BD38B50400A5
:104FD0000D00002C01D0012000E000206A22DFF843
:104FE0006813C0B2FCF7DAF8DFF864130122207806
:104FF000C01011EBC010237813F0070312FA03F36B
:105000000360EDB2002D0CD02079C010DFF83C33E6
:1050100013EBC013207910F0070012FA00F01860AB
:1050200009E02079C01011EBC010237913F00703B9
:1050300012FA03F30360E06800900098431E0093A7
:105040000028FAD1DFF804332078C01013EBC01029
:10505000257815F0070512FA05F50560E06800905F
:105060000098451E00950028FAD12078C01011EB59
:10507000C011207810F0070012FA00F008602079C3
:10508000C01013EBC013207910F0070082401A60A3
:1050900031BD2DE9FC410400002C01D0012000E0CD
:1050A00000208622DFF8A012C0B2FCF777F80025B6
:1050B000DFF8EC6201272078C01016EBC0102178D1
:1050C00011F0070117FA01F10160DFF88082207901
:1050D000C01018EBC010217911F0070117FA01F187
:1050E0000160002200216068C0B2FEF7E8FAE068C3
:1050F00000900098411E00910028FAD12078C0103D
:1051000018EBC018207810F0070017FA00F0C8F864
:105110000000E06800900098411E00910028FAD13C
:105120006068C0B2FEF7AAFA002800D001252078F6
:10513000C01016EBC016207810F0070087403760CB
:10514000032201216068C0B2FEF7B9FAE06800905E
:105150000098411E00910028FAD12800C0B2BDE895
:10516000F6817CB504000D00002C01D0012000E088
:105170000020A822DFF8D011C0B2FCF70FF8802180
:105180000800C0B200284ED02800C0B208420CD09F
:105190000120227912F0070290402279D210DFF824
:1051A000AC3113EBC21318600BE00120227912F02E
:1051B000070290402279D210DFF8E43113EBC213DA
:1051C0001860C9B24908E068400800900098421E83
:1051D00000920028FAD10122207810F0070012FA7C
:1051E00000F02378DB10DFF8646116EBC316306043
:1051F000E06800900098431E00930028FAD12078C0
:1052000010F0070082402078C010DFF8943113EBD3
:10521000C0131A60E068400800900098421E009297
:105220000028FAD1ACE72000FFF733FF012801D1B5
:10523000002000E00120C0B276BD2DE9FC4704004B
:105240000D00002C01D0012000E00020C222DFF878
:10525000F810C0B2FBF7A2FF00260827DFF8F080A5
:105260005FF001092078C01018EBC010217811F010
:10527000070119FA01F10160E06800900098411EF1
:1052800000910028FAD1DFF8C4A02079C0101AEBF1
:10529000C010217911F0070119FA01F10160002213
:1052A00000216068C0B2FEF70AFA27E02078C0103B
:1052B00018EBC010217811F0070119FA01F1016013
:1052C000E06800900098411E00910028FAD12078F3
:1052D000C0101AEBC010217811F0070119FA01F182
:1052E0000160E06800900098411E00910028FAD10A
:1052F0006068C0B2FEF7C2F950EA46063800471EA1
:10530000C0B20028D2D12078C01018EBC018207885
:1053100010F0070019FA00F9C8F8009003220121E3
:105320006068C0B2FEF7CBF9E06800900098411EBB
:1053300000910028FAD12900C9B22000FFF746FEEB
:105340003000C0B2BDE8F687107B2810080031405D
:105350000400314070B504000D001600002C01D08F
:10536000012000E0002040F28D224749C0B2FBF747
:1053700015FF2000FFF78CFD217A4900C9B22000FB
:10538000FFF7EFFE2900C9B22000FFF7EAFE310067
:10539000C9B22000FFF7E5FE2000FFF7C8FD70BD91
:1053A0000400314038B504000D00002C01D001206C
:1053B00000E0002040F29F223349C0B2FBF7EEFE2E
:1053C00000202000FFF764FD217A4900C9B22000C7
:1053D000FFF7C7FE2900C9B22000FFF7C2FE200078
:1053E000FFF7A5FD2000FFF753FD217A490051F09A
:1053F0000101C9B22000FFF7B4FE01212000FFF730
:105400001CFF05002000FFF792FD2800C0B232BD4E
:105410002DE9F843040088461700002C01D0012034
:1054200000E00020089D1E00DFF85C9040F2BA22E8
:105430004946C0B2FBF7B2FE30002900C0B2C9B283
:10544000884201D0012000E0002040F2BB22494602
:10545000C0B2FBF7A3FE3000C0B220602800C0B28B
:10546000606084F80880E760032301220121300096
:10547000C0B2FEF74BF90323012201212800C0B27C
:10548000FEF744F9BDE8F183107B2810000000000E
:10549000000000000000000000000000000000F814
:1054A00000000000000000333000000000100C0677
:1054B000100C0600000000000000000040C0784012
:1054C000C0784000043F04043F040400007088FCDE
:1054D00008300000001820FF211E0000F008F00036
:1054E000E018000000211C031E211E0000F00888A7
:1054F000700000001E2123241927211010160E0011
:10550000000000000000000000000000000000E0BB
:1055100018040200000000071820400000020418D0
:10552000E00000000040201807000000404080F02C
:10553000804040000202010F01020200000000F062
:10554000000000000101011F010101000000000036
:105550000000000080B070000000000000000000AB
:105560000000000000010101010101010000000034
:1055700000000000003030000000000000000000CB
:1055800080601804006018060100000000E01008A8
:105590000810E000000F102020100F00001010F87D
:1055A000000000000020203F2020000000700808BC
:1055B000088870000030282422213000003008883C
:1055C000884830000018202020110E000000C02064
:1055D00010F8000000070424243F240000F8088885
:1055E000880808000019212020110E0000E0108812
:1055F00088180000000F112020110E000038080844
:10560000C83808000000003F000000000070880853
:1056100008887000001C222121221C0000E01008D4
:105620000810E0000000312222110F00000000C02D
:10563000C0000000000000303000000000000080CA
:1056400000000000000080600000000000008040BA
:1056500020100800000102040810200040404040D3
:105660004040400004040404040404000008102026
:10567000408000000020100804020100007048086B
:105680000808F0000000003036010000C030C828D3
:10569000E810E0000718272423140B000000C0388E
:1056A000E0000000203C23020227382008F8888808
:1056B00088700000203F202020110E00C030080814
:1056C00008083800071820202010080008F80808EB
:1056D0000810E000203F202020100F0008F88888E4
:1056E000E8081000203F20202320180008F88888B0
:1056F000E8081000203F200003000000C030080828
:105700000838000007182020221E020008F80800B0
:105710000008F808203F210101213F20000808F877
:10572000080800000020203F20200000000008089A
:10573000F8080800C08080807F00000008F888C05A
:1057400028180800203F20012638200008F808000B
:1057500000000000203F20202020300008F8F80042
:10576000F8F80800203F003F003F200008F830C054
:105770000008F808203F200007183F00E010080844
:105780000810E0000F10202020100F0008F8080873
:105790000808F000203F210101010000E010080886
:1057A0000810E0000F18242438504F0008F88888AB
:1057B00088887000203F2000030C3020007088088B
:1057C000080838000038202121221C00180808F899
:1057D000080818000000203F2000000008F808001A
:1057E0000008F808001F202020201F0008788800EB
:1057F00000C83808000007380E010000F80800F85B
:105800000008F800033C0700073C03000818688004
:105810008068180820302C03032C30200838C8007A
:10582000C83808000000203F2000000010080808C9
:10583000C83808002038262120201800000000FE6B
:10584000020202000000007F40404000000C30C017
:1058500000000000000000010638C0000002020243
:10586000FE000000004040407F00000000000402F5
:105870000202040000000000000000000000000020
:105880000000000080808080808080800002020410
:105890000000000000000000000000000000808008
:1058A000808000000019242222223F2008F8008076
:1058B00080000000003F112020110E000000008039
:1058C00080800000000E11202020110000000080C8
:1058D0008088F800000E112020103F2000008080FA
:1058E00080800000001F222222221300008080F00E
:1058F000888888180020203F202000000000808039
:1059000080808000006B94949493600008F800807D
:1059100080800000203F210000203F2000809898D8
:10592000000000000020203F202000000000008038
:105930009898000000C08080807F000008F8000078
:1059400080808000203F24022D302000000808F8CD
:10595000000000000020203F202000008080808088
:1059600080808000203F20003F20003F808000801A
:1059700080800000203F210000203F200000808028
:1059800080800000001F202020201F0080800080D9
:105990008000000080FFA12020110E000000008088
:1059A00080808000000E112020A0FF808080800079
:1059B0008080800020203F212000010000008080A6
:1059C000808080000033242424241900008080E09B
:1059D000808000000000001F202000008080000068
:1059E00000808000001F202020103F208080800049
:1059F0000080808000010E30080601008080008059
:105A0000008080800F300C030C300F00008080007D
:105A1000808080000020312E0E31200080808000A8
:105A20000080808080818E70180601000080808058
:105A3000808080000021302C2221300000000000F6
:105A4000807C020200000000003F40400000000097
:105A5000FF00000000000000FF0000000002027CC8
:105A6000800000000040403F0000000000060101EF
:105A7000020204040000000000000000022801D31C
:105A800001200FE00B00DBB2042B01DB012009E059
:105A9000B84B03EB8000C9B2405C824201D30120C5
:105AA00000E000207047F8B506000F0015001C004C
:105AB000022E01D301201CE02A003900C9B23000B7
:105AC000FFF7DCFF012801D1012012E03800C0B24D
:105AD000002811D1B4F5807F0CD2A748760330445A
